:100000000C945E000C9486000C9486000C94860080
:100010000C9486000C9486000C9486000C94860048
:100020000C9486000C9486000C9486000C94860038
:100030000C9486000C9486000C9486000C94860028
:100040000C9443060C9486000C94A3020C947D023D
:100050000C9486000C9486000C9486000C94860008
:100060000C94D5020C9486000000000800020100E8
:100070000003040700000000000000000000000072
:10008000250028002B0000000000240027002A0083
:10009000040404040404040402020202020203032E
:1000A0000303030301020408102040800102040836
:1000B0001020010204081020DB0AD50A11241FBEFB
:1000C000CFEFD8E0DEBFCDBF27E0A8E4B1E001C0AC
:1000D0001D92A439B207E1F711E0A0E0B1E0E6EB30
:1000E000F0E202C005900D92A834B107D9F710E0F4
:1000F000CDE5D0E004C02197FE010E944C0ECC3526
:10010000D107C9F70E948D060C944E100C94000084
:1001100080914E0690E020914F06821B9109089530
:10012000089508950895CF92DF92EF92FF920F9372
:100130001F93CF93DF936C017A018B01C0E0D0E075
:10014000CE15DF0581F0D8016D918D01D601ED91BD
:10015000FC910190F081E02DC6010995892B11F0E9
:100160002196EECF7E01C701DF91CF911F910F91B4
:10017000FF90EF90DF90CF900895FC01538D448D58
:10018000252F30E0842F90E0821B930B541710F042
:10019000CF96089501970895FC01918D828D98174F
:1001A00061F0828DDF01A80FB11D5D968C91928D5B
:1001B0009F5F9F73928F90E008958FEF9FEF089558
:1001C000FC01918D828D981731F0828DE80FF11D21
:1001D000858D90E008958FEF9FEF0895FC01918D3C
:1001E000228D892F90E0805C9F4F821B91098F7335
:1001F000992708958BEB96E00E94EE0021E0892B71
:1002000009F420E0822F0895FC01848DDF01A80FFE
:10021000B11DA35ABF4F2C91848D90E001968F732E
:100220009927848FA689B7892C93A089B1898C914D
:10023000837080648C93938D848D981306C002889C
:10024000F389E02D80818F7D80830895EF92FF9266
:100250000F931F93CF93DF93EC0181E0888F9B8DE9
:100260008C8D981305C0E889F989808185FD26C0A9
:10027000F62E0B8D10E00F5F1F4F0F731127E02E2E
:100280008C8DE8120CC00FB607FCFACFE889F9890B
:10029000808185FFF5CFCE010E940401F1CF8B8DC7
:1002A000FE01E80FF11DE35AFF4FF0829FB7F8946B
:1002B0000B8FEA89FB89808180620AC09FB7F8941E
:1002C000EE89FF896083E889F98980818370806481
:1002D00080839FBF81E090E0DF91CF911F910F91CC
:1002E000FF90EF900895CF93DF93EC01888D8823E2
:1002F000C9F0EA89FB89808185FD05C0A889B98993
:100300008C9186FD0FC00FB607FCF5CF808185FF6D
:10031000F2CFA889B9898C9185FFEDCFCE010E94DB
:100320000401E7CFDF91CF91089580E090E0892B21
:1003300029F00E94FA0081110C940000089585EDC7
:100340008093BC008091BC0084FDFCCF1092960687
:10035000089540916801262F30E0240F311D21328D
:100360003105DCF4209196062430C9F4FC0180E0CC
:1003700090E0861758F4309168012191DC01A85B68
:10038000BE4FA30FB11D2C930196F3CF809168014E
:10039000680F6093680180E0089581E0089582E02D
:1003A00008950895E0914F0680914E06E81730F4C5
:1003B000F0E0E05BF94F808190E008958FEF9FEFD0
:1003C000089590914F0680914E06981750F4E92FAA
:1003D000F0E0E05BF94F208130E09F5F90934F06A3
:1003E00002C02FEF3FEFC9010895CF92DF92EF9245
:1003F000FF920F931F93CF93DF937C01CB018A0170
:1004000020919706222389F0EB016B01C40ED51EC3
:10041000CC15DD0569F06991D701ED91FC91019052
:10042000F081E02DC7010995F3CF642F0E94A90147
:10043000C801DF91CF911F910F91FF90EF90DF9056
:10044000CF900895CF93DF931F92CDB7DEB7698326
:10045000209197062223D1F02091BA06203240F055
:1004600021E030E0FC013383228380E090E015C07E
:1004700080919806E82FF0E0E756F94F9981908334
:100480008F5F809398068093BA0605C061E0CE0125
:1004900001960E94A90181E090E00F90DF91CF9139
:1004A000089580E090E008950E9439100F931F9303
:1004B000CF93DF93EC0188819981009729F02A81FD
:1004C0003B812617370788F48B016F5F7F4F0E94AF
:1004D000730F009761F0998388831B830A832C81B3
:1004E0003D81232B11F4FC01108281E001C080E0EA
:1004F000DF91CF911F910F9108951F920F920FB628
:100500000F9211242F933F934F935F936F937F9399
:100510008F939F93AF93BF93EF93FF938BEB96E0F3
:100520000E940401FF91EF91BF91AF919F918F9134
:100530007F916F915F914F913F912F910F900FBEDF
:100540000F901F9018951F920F920FB60F921124C3
:100550002F938F939F93EF93FF93E091CB06F091AE
:10056000CC068081E091D106F091D20682FD12C0C6
:1005700090818091D4068F5F8F732091D50682176A
:1005800051F0E091D406F0E0E554F94F958F809357
:10059000D40601C08081FF91EF919F918F912F919F
:1005A0000F900FBE0F901F9018951F920F920FB6CD
:1005B0000F9211242F933F934F935F936F937F93E9
:1005C0008F939F93AF93BF93EF93FF938091B90065
:1005D000887F803609F49CC068F5883209F45BC0D6
:1005E00090F4803109F454C038F4882309F4F6C03B
:1005F000883009F44DC0F6C0883109F44CC080320F
:1006000009F45DC0EFC0803409F468C048F4803359
:1006100009F455C0883309F0E5C080939406D8C02A
:10062000803509F44FC0883509F45DC0883409F07D
:10063000D9C0D6C0883909F4C7C0A8F4883709F4EE
:1006400067C038F4883609F463C0803709F460C0A5
:10065000C9C0883809F4B8C0803909F45FC080384F
:1006600009F0C0C05BC0803B09F486C038F4803A12
:1006700009F466C0883A09F47FC0B4C0803C09F42C
:10068000A7C0883C09F4A4C0883B09F48AC0AAC06A
:100690008091710610C090919306809192069817F0
:1006A00070F5E091930681E08E0F80939306F0E061
:1006B000EE58F94F80818093BB0085EC86C0809313
:1006C00094068EC0E091930681E08E0F809393068E
:1006D0008091BB00F0E0EE58F94F80839091930633
:1006E000809192066EC0E091930681E08E0F809318
:1006F00093068091BB00F0E0EE58F94F8083809123
:10070000950681116DC081E08093700684EA61C016
:1007100083E08093960610928A01CFCF80918A0160
:10072000803208F051C0E0918A0181E08E0F809301
:100730008A018091BB00F0E0E659FE4F8083BDCF77
:1007400085EC8093BC001092960680918A018032DD
:1007500030F4E0918A01F0E0E659FE4F108260919A
:100760008A0170E0E0918C01F0918D018AE691E0C0
:10077000099510928A0136C084E080939606109203
:10078000690110926801E0918E01F0918F01099545
:1007900080916801811105C081E080936801109209
:1007A0004801E091690181E08E0F80936901F0E0DA
:1007B000E85BFE4F80818093BB009091690180913E
:1007C0006801981708F479CF85E88093BC000AC0C7
:1007D00085EC8093BC001092960604C0109294069B
:1007E0000E949F01FF91EF91BF91AF919F918F91D7
:1007F0007F916F915F914F913F912F910F900FBE1D
:100800000F901F9018958EBD00000DB407FEFDCF10
:100810008EB50895009769F0FC0101900020E9F77A
:100820003197AF01481B590BBC018BEB96E00C9440
:10083000930080E090E00895282F3091BA0631327D
:1008400008F04AC0809196068111FCCF9091B906BC
:1008500042E040939606209395062FEF209394064E
:100860001092930630939206E9E9F6E0A2E7B6E02B
:1008700020E0321721F041914D932F5FFACF109273
:10088000710620917106990F922B909371069091A9
:100890007006913061F410927006909171069093F9
:1008A000BB009091BC0093FDF8CF95EC01C095EE94
:1008B0009093BC00909196069230E1F3909194064B
:1008C0009F3F79F080919406803241F080919406A8
:1008D000803331F084E005C081E003C082E001C0D4
:1008E00083E0109298061092BA0610929706089527
:1008F000909196069111FCCF91E09093960690937B
:1009000095062FEF2093940610929306260F2093BE
:1009100092069093710690917106880F892B8093AF
:10092000710680917006813061F41092700680919A
:1009300071068093BB008091BC0083FDF8CF85ECED
:1009400001C085EE8093BC00809196068130E1F372
:1009500080919306861710F460919306A2E7B6E0A3
:10096000E0E5F6E080E0861721F09D9191938F5F9E
:10097000FACF08958F929F92AF92BF920F931F93D9
:10098000CF93DF93CDB7DEB7A1970FB6F894DEBF54
:100990000FBECDBF19A2423008F44AE08E010F5DB0
:1009A0001F4F842E912CA12CB12CA50194010E94E3
:1009B0002A0EE62FB901CA0101501109EA3014F4D8
:1009C000E05D01C0E95CD801EC93232B242B252B9F
:1009D00061F7C8010E940A04A1960FB6F894DEBF21
:1009E0000FBECDBFDF91CF911F910F91BF90AF9000
:1009F0009F908F90089590E0FC01EC55FF4F24915B
:100A0000FC01E057FF4F8491882399F090E0880F14
:100A1000991FFC01EA57FF4FA591B491FC01E458DE
:100A2000FF4F859194918FB7F894EC91E22BEC9362
:100A30008FBF08952FB7F89480918C0790918D0700
:100A4000A0918E07B0918F072FBF8093C30690931C
:100A5000C406A093C506B093C6068BEB96E00E9431
:100A6000CC0097FF26C02FB7F89480918C07909107
:100A70008D07A0918E07B0918F072FBF4091C306BD
:100A80005091C4066091C5067091C606841B950BF3
:100A9000A60BB70B4091BF065091C0066091C106EE
:100AA0007091C20684179507A607B707B0F28FEFBB
:100AB0009FEF089590E0FC01E859FF4F2491FC015D
:100AC000EC55FF4F3491FC01E057FF4FE491EE23CA
:100AD00009F43CC0222339F1233091F038F421305D
:100AE000A9F0223001F584B58F7D12C0273091F036
:100AF0002830A1F02430B9F4809180008F7D03C0AC
:100B0000809180008F77809380000DC084B58F77AF
:100B100084BD09C08091B0008F7703C08091B00080
:100B20008F7D8093B000F0E0EE0FFF1FE458FF4F81
:100B3000A591B4919FB7F894611104C08C91309540
:100B4000382302C0EC913E2B3C939FBF0895EF9257
:100B5000FF920F931F93CF93DF937C01C62F809159
:100B60006407882319F0813061F141C080916507E5
:100B700091E0909397068093B90610929806109290
:100B8000BA0688E597E00E94220281E00E941C04D8
:100B9000D1E0C0E0811101C0D0E061E08091650743
:100BA0000E947804082F10924F0680934E06809181
:100BB0004F060817F1F088E597E00E94E101182F31
:100BC000F6CF60E0809166070E945A058C2F8068FE
:100BD0000E94030480E00E940304182F61E08091CA
:100BE00066070E945A051F3F11F4D5E001C0D0E00E
:100BF000C0E0F70110838D2F9C2FDF91CF911F91C3
:100C00000F91FF90EF900895CF93DF93D82FC62FC9
:100C100080916407882399F0813081F560E08091AC
:100C200066070E945A058D2F0E9403048C2F0E9494
:100C3000030461E0809166070E945A051FC08091FD
:100C4000650791E0909397068093B90610929806F5
:100C50001092BA066D2F88E597E00E9422026C2F51
:100C600088E597E00E94220281E00E941C0421E0B6
:100C700090E0811101C020E0822F02C080E090E06E
:100C8000DF91CF9108951F920F920FB60F9211240A
:100C90002F933F938F939F93AF93BF9380918C0734
:100CA00090918D07A0918E07B0918F0730918B079F
:100CB00023E0230F2D3720F40196A11DB11D05C09F
:100CC00026E8230F0296A11DB11D20938B07809368
:100CD0008C0790938D07A0938E07B0938F07809118
:100CE0004A0690914B06A0914C06B0914D06019694
:100CF000A11DB11D80934A0690934B06A0934C060C
:100D0000B0934D06BF91AF919F918F913F912F91DD
:100D10000F900FBE0F901F901895CF93DF93CDB714
:100D2000DEB72B970FB6F894DEBF0FBECDBF789419
:100D300084B5826084BD84B5816084BD85B58260E0
:100D400085BD85B5816085BD80916E008160809391
:100D50006E001092810080918100826080938100FA
:100D6000809181008160809381008091800081600A
:100D7000809380008091B10084608093B100809165
:100D8000B00081608093B00080917A00846080938D
:100D90007A0080917A00826080937A0080917A0054
:100DA000816080937A0080917A00806880937A00D5
:100DB0001092C100E091CB06F091CC0682E08083D6
:100DC000E091C706F091C8061082E091C906F09143
:100DD000CA068FEC80831092D306E091CF06F09183
:100DE000D00686E08083E091CD06F091CE0680812A
:100DF00080618083E091CD06F091CE06808188608D
:100E00008083E091CD06F091CE068081806880835A
:100E1000E091CD06F091CE0680818F7D80831F8288
:100E200080916407882319F08130A9F179C010926C
:100E30004F0610924E06109298061092BA06109223
:100E4000960681E0809395061092700661E082E13B
:100E50000E945A0561E083E10E945A058091B90021
:100E60008E7F8093B9008091B9008D7F8093B90007
:100E700088E48093B80085E48093BC0080E990E02A
:100E800090938F0180938E0181E990E090938D0182
:100E900080938C0145C01FB7F89480918B0181111C
:100EA00024C0EAE9F0E08491EEEAF0E09491E82FC2
:100EB000F0E0EE0FFF1FEA57FF4FA591B491EC91C0
:100EC000E92321F461E08AE00E945A058AE00E9449
:100ED000FB048CB580618CBD8CB580648CBD8DE0CD
:100EE0000E94FB048BE00E94FB0480918B018F5FCA
:100EF00080938B011FBF8CB58C7F8CBD8DB58E7F91
:100F00008DBD8CB58F7D8CBD8CB58C608CBD80917A
:100F100066070E94FB0461E0809166070E945A0503
:100F2000198680E197E229852F5F29870197D9F7F4
:100F30006FE0CE0101960E94A70519811F822091C2
:100F40007007213009F069C080917607909177078A
:100F50008436910539F0883C910539F0C29731F417
:100F600083E001C082E08F8301C02F83209172074C
:100F7000309173078F812430310541F028303105DD
:100F800039F02230310531F0846003C0886001C03F
:100F90008C608F8320917407309175078F81203A80
:100FA00091E0390771F180F42A31310511F128F40B
:100FB0002D30310511F580612FC024333105D9F072
:100FC000203D3105E1F019C02230FDE03F07F9F086
:100FD00040F42134E3E03E07B1F02C373640A9F06D
:100FE0000CC024309AE13907A1F02231344399F042
:100FF00004C0806211C080630FC080640DC0806532
:101000000BC0806609C0806707C0806805C0806922
:1010100003C0806A01C0806B8F836F8180E10E9472
:10102000040663E1CE0107960E94A7058F818F77A2
:101030008F8390917107913011F480688F836F8155
:1010400083E10E9404061F8280916707813009F0C6
:1010500048C08091680790916907853F910599F094
:1010600028F48D37910569F482E00CC0843FF1E0EB
:101070009F0729F0883E934021F488E003C084E074
:1010800001C08CE08F8320916A0730916B078F81BC
:10109000203D3105F1F058F42A313105A1F0243317
:1010A000310599F02D30310591F4806119C021345A
:1010B00093E0390791F02C37E6E03E0781F0203AC3
:1010C000314029F408C080620BC0806309C080648D
:1010D00007C0806505C0806603C0806701C0806866
:1010E0008F836F8181E10E9404066FE0CE0101963B
:1010F0000E94A705193641F08AE291E00E940A0495
:1011000087E391E00E940A0468E4862E66E0962E4A
:1011100080E190E09093730780937207E2E1F4E33B
:10112000F0937507E09374078BEB96E00E94EE0056
:10113000181619060CF06FC01A8219821C821B82C5
:101140001E821D8260E070E0CE0101960E94560270
:1011500029813A8181110DC02115310519F0C9018C
:101160000E94EA0E1A8219821E821D821C821B8234
:1011700007C01E821D8269E371E0C9010E94471009
:101180000E941A0597FD1BC08F8318860D811E8152
:101190000F5F1F4FB801CE0101960E9456028823AF
:1011A00079F329813A818D819E81BE01695F7F4FEC
:1011B000820F931F0E9447101E830D83E1CF809101
:1011C000850790918607009741F069817A816115C2
:1011D000710509F0D7C10E94EA0E89819A81909326
:1011E0008607809385078B819C81909388078093E5
:1011F00087078D819E8190938A07809389071A8241
:10120000198289819A810E94EA0E81E090E0909390
:1012100049068093480680914806909149060197B7
:1012200009F0ADC1E4E9F1E0FB87EA8750EFE52E74
:1012300053E0F52E67013F013FB7F89480914A06CD
:1012400090914B06A0914C06B0914D0626B5A89BF7
:1012500005C02F3F19F00196A11DB11D3FBFBA2F48
:10126000A92F982F8827820F911DA11DB11D42E043
:10127000880F991FAA1FBB1F4A95D1F7F6018193CA
:101280009193A193B1936F0180916407882319F022
:10129000813091F158C080916507F1E0F093970695
:1012A0008093B906109298061092BA0668E288E513
:1012B00097E00E94220281E00E941C04811140C03C
:1012C00062E0809165070E94780410924F06809337
:1012D0004E068823C1F188E597E00E94E1018983E9
:1012E00090914E0680914F06981769F188E597E036
:1012F0000E94E1018A8327C060E0809166070E9416
:101300005A0588EA0E94030480E00E94030411E069
:101310008F3F09F010E0898380E00E9403048F3F33
:1013200009F41F5F8A83123019F000E010E002C058
:1013300005E010E061E0809166070E945A0505C053
:1013400001E010E002C000E010E0A980BA800115C1
:101350001105B1F00530110551F48091810790918C
:1013600082070196909382078093810709C080913C
:101370008307909184070196909384078093830755
:1013800060917207709173077695679580E090E0A1
:101390000E94BC0B1B012C01B501BB0C880B990BE7
:1013A0000E94BE0B23E23BED49E75DE30E941D0C6A
:1013B0009B01AC01C201B1010E941D0C20E030E094
:1013C0004AE754E40E947F0DF30161937193819386
:1013D00091933F018C149D0409F02ECFF7014190A9
:1013E0005190619071907F0177FE0EC06DE28BEBA2
:1013F00096E00E94260166277727CB0164197509BC
:10140000860997094AE003C04AE0C301B2010E947D
:10141000BA048AE391E00E940A04EA85FB854190C0
:10142000519061907190FB87EA87A3019201C301FB
:10143000B2010E94250E882319F08CE391E01AC0B6
:1014400063015201E894D7F82FEF3FEF4FE75FE7D2
:10145000C601B5010E94250E81110FC02FEF3FEF8D
:101460004FE75FE7C601B5010E94B70B18162CF4D1
:1014700080E491E00E940A0476C02FEF3FEF4FE72F
:101480005FE4C301B2010E94200E18161CF484E42C
:1014900091E0F0CF2FEF3FEF4FE75FECC301B201D8
:1014A0000E94B70B87FDF3CF20E030E0A901C30114
:1014B000B2010E94B70B87FF09C06DE28BEB96E08B
:1014C0000E94260177FA709477F870942AE037ED3D
:1014D00043EA5BE3C301B2010E94130D5B016C019F
:1014E0000E94F10D2B013C010E94BC0B9B01AC0141
:1014F000C601B5010E94120D5B016C014AE0C301F7
:10150000B2010E94BA046EE28BEB96E00E942601C3
:1015100020E030E040E251E4C601B5010E941D0C1C
:101520005B016C010E94F10D2B01612C712C4AE0D2
:10153000C301B2010E94BA04C301B2010E94BC0BF4
:101540009B01AC01C601B5010E94120D20E030E004
:1015500040E251E40E941D0C0E94F10D80E090E0F9
:101560004AE00E94BA0487E391E00E940A048E14C4
:101570009F0409F033CF10924906109248060E944A
:101580009501C6CD40918707509188072D813E81F6
:101590004217530708F41FCE0E9447108D819E8189
:1015A00090938A07809389072CCE8091850790912C
:1015B00086070C94EA0E1092BE061092BD0688EEC5
:1015C00093E0A0E0B0E08093BF069093C006A093A4
:1015D000C106B093C2062AE031E03093BC062093E6
:1015E000BB0625EC30E03093C8062093C70624ECF8
:1015F00030E03093CA062093C90620EC30E03093E7
:10160000CC062093CB0621EC30E03093CE0620931D
:10161000CD0622EC30E03093D0062093CF0626ECA6
:1016200030E03093D2062093D1061092D406109267
:10163000D5061092D6061092D70610925B0710922C
:101640005A0780935C0790935D07A0935E07B09361
:101650005F078CE191E090935907809358071092AF
:1016600086071092850710928807109287071092BC
:101670008A071092890760E070E085E897E00E9491
:1016800056022091850730918607811113C02115DC
:10169000310519F0C9010E94EA0E109286071092D6
:1016A000850710928A071092890710928807109276
:1016B000870709C010928A071092890769E371E0D1
:1016C000C9010E944710109264078AE08093660760
:1016D0008AE68093650781E08093670720ED37E015
:1016E000309369072093680720EA31E030936B0755
:1016F00020936A0740E951E050936D0740936C07CF
:1017000080936E0780936F078093700780937107B3
:1017100040E150E050937307409372073093750790
:101720002093740724E630E0309377072093760700
:10173000809378078093790780937A0780937B075B
:1017400088EB9BE090937D0780937C078AE090E094
:1017500090937F0780937E071092800710928207F4
:1017600010928107109284071092830708950E94B7
:10177000F90B08F481E00895E89409C097FB3EF462
:1017800090958095709561957F4F8F4F9F4F9923CE
:10179000A9F0F92F96E9BB279395F695879577954C
:1017A0006795B795F111F8CFFAF4BB0F11F460FF0C
:1017B0001BC06F5F7F4F8F4F9F4F16C0882311F064
:1017C00096E911C0772321F09EE8872F762F05C078
:1017D000662371F096E8862F70E060E02AF09A9513
:1017E000660F771F881FDAF7880F9695879597F908
:1017F0000895990F0008550FAA0BE0E8FEEF1616A2
:101800001706E807F907C0F012161306E407F507F4
:1018100098F0621B730B840B950B39F40A2661F068
:10182000232B242B252B21F408950A2609F4A1400B
:10183000A6958FEF811D811D08950E94300C0C9498
:10184000A10C0E94930C38F00E949A0C20F0952372
:1018500011F00C948A0C0C94900C11240C94D50C5F
:101860000E94B20C70F3959FC1F3950F50E0551F85
:10187000629FF001729FBB27F00DB11D639FAA27E5
:10188000F00DB11DAA1F649F6627B00DA11D661F34
:10189000829F2227B00DA11D621F739FB00DA11D55
:1018A000621F839FA00D611D221F749F3327A00D0F
:1018B000611D231F849F600D211D822F762F6A2FAB
:1018C00011249F5750409AF0F1F088234AF0EE0F10
:1018D000FF1FBB1F661F771F881F91505040A9F73D
:1018E0009E3F510580F00C948A0C0C94D50C5F3F00
:1018F000E4F3983ED4F3869577956795B795F79579
:10190000E7959F5FC1F7FE2B880F911D96958795F0
:1019100097F9089597F99F6780E870E060E008956F
:101920009FEF80EC089500240A94161617061806F7
:101930000906089500240A941216130614060506D3
:101940000895092E0394000C11F4882352F0BB0F64
:1019500040F4BF2B11F460FF04C06F5F7F4F8F4FC7
:101960009F4F089557FD9058440F551F59F05F3F02
:1019700071F04795880F97FB991F61F09F3F79F0B1
:1019800087950895121613061406551FF2CF469533
:10199000F1DF08C0161617061806991FF1CF8695B5
:1019A0007105610508940895E894BB276627772799
:1019B000CB0197F908952F923F924F925F926F92C9
:1019C0007F928F929F92AF92BF92CF92DF92EF92CF
:1019D000FF920F931F93CF93DF93CDB7DEB7CA1B50
:1019E000DB0B0FB6F894DEBF0FBECDBF09942A887B
:1019F000398848885F846E847D848C849B84AA8423
:101A0000B984C884DF80EE80FD800C811B81AA81AF
:101A1000B981CE0FD11D0FB6F894DEBF0FBECDBF7A
:101A2000ED0108955058BB27AA270E942A0D0C9457
:101A3000A10C0E94930C38F00E949A0C20F039F40B
:101A40009F3F19F426F40C94900C0EF4E095E7FBFC
:101A50000C948A0CE92F0E94B20C58F3BA17620753
:101A600073078407950720F079F4A6F50C94D40C3D
:101A70000EF4E0950B2EBA2FA02D0B01B9019001A9
:101A80000C01CA01A0011124FF27591B99F0593FED
:101A900050F4503E68F11A16F040A22F232F342F35
:101AA0004427585FF3CF469537952795A795F04083
:101AB0005395C9F77EF41F16BA0B620B730B840B98
:101AC000BAF09150A1F0FF0FBB1F661F771F881F50
:101AD000C2F70EC0BA0F621F731F841F48F48795A8
:101AE00077956795B795F7959E3F08F0B0CF93959A
:101AF000880F08F09927EE0F9795879508950E9413
:101B0000930D0C94A10C0E949A0C58F00E94930C17
:101B100040F029F45F3F29F00C948A0C51110C9489
:101B2000D50C0C94900C0E94B20C68F39923B1F37D
:101B3000552391F3951B550BBB27AA2762177307F3
:101B4000840738F09F5F5F4F220F331F441FAA1F87
:101B5000A9F335D00E2E3AF0E0E832D09150504043
:101B6000E695001CCAF72BD0FE2F29D0660F771FF1
:101B7000881FBB1F261737074807AB07B0E809F0D7
:101B8000BB0B802DBF01FF2793585F4F3AF09E3F5C
:101B9000510578F00C948A0C0C94D50C5F3FE4F35B
:101BA000983ED4F3869577956795B795F7959F5F9F
:101BB000C9F7880F911D9695879597F90895E1E0EB
:101BC000660F771F881FBB1F621773078407BA074A
:101BD00020F0621B730B840BBA0BEE1F88F7E095A5
:101BE00008950E94BA0C88F09F5798F0B92F992752
:101BF000B751B0F0E1F0660F771F881F991F1AF0F8
:101C0000BA95C9F714C0B13091F00E94D40CB1E07C
:101C100008950C94D40C672F782F8827B85F39F07B
:101C2000B93FCCF3869577956795B395D9F73EF490
:101C300090958095709561957F4F8F4F9F4F089538
:101C40000E94F90B08F48FEF08950E94F90B880B9E
:101C5000990B0895A1E21A2EAA1BBB1BFD010DC012
:101C6000AA1FBB1FEE1FFF1FA217B307E407F5074C
:101C700020F0A21BB30BE40BF50B661F771F881F28
:101C8000991F1A9469F760957095809590959B01BE
:101C9000AC01BD01CF010895EE0FFF1F0590F49137
:101CA000E02D09940F931F93CF93DF93823091051A
:101CB00010F482E090E0E0919207F091930720E029
:101CC00030E0A0E0B0E0309719F14081518102810D
:101CD000138148175907C8F08417950769F41097BE
:101CE00031F012960C93129713961C9327C0009311
:101CF00092071093930722C02115310519F042175E
:101D0000530718F49A01BD01EF01DF01F801DBCFA1
:101D100021153105F9F0281B390B2430310580F4E9
:101D20008A819B816115710521F0FB019383828378
:101D300004C09093930780939207FE01329644C0AB
:101D4000FE01E20FF31F81939193225031093983F1
:101D500028833AC02091900730919107232B41F4BA
:101D60002091020130910301309391072093900755
:101D700020910001309101012115310541F42DB769
:101D80003EB74091040150910501241B350BE091B1
:101D90009007F0919107E217F307A0F42E1B3F0B79
:101DA0002817390778F0AC014E5F5F4F24173507CD
:101DB00048F04E0F5F1F5093910740939007819317
:101DC000919302C0E0E0F0E0CF01DF91CF911F914D
:101DD0000F910895CF93DF93009709F481C0FC0120
:101DE000329713821282A0919207B09193071097B5
:101DF00081F420813181820F931F209190073091CF
:101E000091072817390751F5F0939107E093900750
:101E100067C0ED0120E030E0CE17DF0740F44A81D3
:101E20005B819E0141155105F1F0EA01F5CFD383A5
:101E3000C28340815181840F951FC817D90759F477
:101E400088819981840F951F0296918380838A816E
:101E50009B81938382832115310529F4F0939307A5
:101E6000E09392073DC0E901FB83EA8349915991D0
:101E7000C40FD51FEC17FD0761F480819181840F99
:101E8000951F0296E90199838883828193819B83C0
:101E90008A83E0E0F0E012968D919C911397009771
:101EA00019F0FD01DC01F7CF8D919C9111979D01F7
:101EB0002E5F3F4F820F931F209190073091910723
:101EC0002817390769F4309729F410929307109274
:101ED000920702C013821282B0939107A0939007D9
:101EE000DF91CF910895A0E0B0E0E9E7FFE00C9426
:101EF000DF0CEC01009721F4CB010E94520EB4C01C
:101F0000FC01E60FF71F9C0122503109E217F3078D
:101F100008F4A8C0D9010D911C9111970617170755
:101F2000B0F00530110508F49BC0C801049786176E
:101F3000970708F495C002501109061B170B01936F
:101F400011936D937C93CF010E94EA0E89C05B01CF
:101F5000A01AB10A4C01800E911EA0919207B09177
:101F60009307612C712CE12CF12C109709F446C0D9
:101F70008D919C911197A815B905B1F56C0142E0BE
:101F8000C40ED11CCA14DB0478F14C018A189B08DA
:101F9000640142E0C40ED11C1296BC9012971396B5
:101FA000AC91B5E0CB16D10440F0B282A38391820C
:101FB0008082D9016D937C9309C00E5F1F4F800F03
:101FC000911FF90191838083EB2DFA2FE114F10425
:101FD00031F0D7011396FC93EE93129741C0F09322
:101FE0009307E09392073CC06816790608F43C0119
:101FF0007D0112960D90BC91A02DB7CF80919007D6
:102000009091910788169906E1F466167706C8F450
:102010008091000190910101009741F48DB79EB726
:102020004091040150910501841B950BE817F907B5
:10203000C8F4F0939107E0939007F90171836083EE
:102040000FC0CB010E94520E7C01009759F0A801ED
:10205000BE010E943E10CE010E94EA0EC70104C0DC
:10206000CE0102C080E090E0CDB7DEB7EEE00C9488
:10207000FB0C81E090E0F8940C944E10FB01DC0125
:1020800002C001900D9241505040D8F70895FB01D5
:10209000DC0101900D920020E1F7089510E0CDE5FC
:1020A000D0E004C0FE010E944C0E2196CE35D1072F
:0620B000C9F7F894FFCF10
:1020B6000000940780000000000026019300BD0088
:1020C6007301EE00CC00E000000000002202F501E2
:1020D6005102D1018800E101D20144657669636548
:1020E600206572726F72000D0A0020006E616E002C
:0820F600696E66006F7666005A
:00000001FF
