:100000000C945E000C9486000C9486000C94860080
:100010000C9486000C9486000C9486000C94860048
:100020000C9486000C9486000C9486000C94860038
:100030000C9486000C9486000C9486000C94860028
:100040000C9490020C9486000C9427030C940103EA
:100050000C9486000C9486000C9486000C94860008
:100060000C9459030C948600000000080002010063
:100070000003040700000000000000000000000072
:10008000250028002B0000000000240027002A0083
:10009000040404040404040402020202020203032E
:1000A0000303030301020408102040800102040836
:1000B00010200102040810200A0CFE0B11241FBEA0
:1000C000CFEFD8E0DEBFCDBF22E0A8E4B1E001C0B1
:1000D0001D92A43EB207E1F711E0A0E0B1E0EEEB23
:1000E000F2E202C005900D92A834B107D9F710E0F2
:1000F000CDE5D0E004C02197FE010E94500FCC3521
:10010000D107C9F70E949C080C9452110C9400006E
:10011000089508950895CF92DF92EF92FF920F9382
:100120001F93CF93DF936C017A018B01C0E0D0E085
:10013000CE15DF0581F0D8016D918D01D601ED91CD
:10014000FC910190F081E02DC6010995892B11F0F9
:100150002196EECF7E01C701DF91CF911F910F91C4
:10016000FF90EF90DF90CF900895FC01538D448D68
:10017000252F30E0842F90E0821B930B541710F052
:10018000CF96089501970895FC01918D828D98175F
:1001900061F0828DDF01A80FB11D5D968C91928D6B
:1001A0009F5F9F73928F90E008958FEF9FEF089568
:1001B000FC01918D828D981731F0828DE80FF11D31
:1001C000858D90E008958FEF9FEF0895FC01918D4C
:1001D000228D892F90E0805C9F4F821B91098F7345
:1001E0009927089589E092E00E94E60021E0892B9A
:1001F00009F420E0822F0895FC01848DDF01A80F0F
:10020000B11DA35ABF4F2C91848D90E001968F733E
:100210009927848FA689B7892C93A089B1898C915D
:10022000837080648C93938D848D981306C00288AC
:10023000F389E02D80818F7D80830895EF92FF9276
:100240000F931F93CF93DF93EC0181E0888F9B8DF9
:100250008C8D981305C0E889F989808185FD26C0B9
:10026000F62E0B8D10E00F5F1F4F0F731127E02E3E
:100270008C8DE8120CC00FB607FCFACFE889F9891B
:10028000808185FFF5CFCE010E94FC00F1CF8B8DE0
:10029000FE01E80FF11DE35AFF4FF0829FB7F8947B
:1002A0000B8FEA89FB89808180620AC09FB7F8942E
:1002B000EE89FF896083E889F98980818370806491
:1002C00080839FBF81E090E0DF91CF911F910F91DC
:1002D000FF90EF900895CF93DF93EC01888D8823F2
:1002E000C9F0EA89FB89808185FD05C0A889B989A3
:1002F0008C9186FD0FC00FB607FCF5CF808185FF7E
:10030000F2CFA889B9898C9185FFEDCFCE010E94EB
:10031000FC00E7CFDF91CF91089580E090E0892B3A
:1003200029F00E94F20081110C940000089585EDDF
:100330008093BC008091BC0084FDFCCF1092080229
:10034000089540916801262F30E0240F311D21329D
:100350003105DCF4209108022430C9F4FC0180E06E
:1003600090E0861758F4309168012191DC01A85B78
:10037000BE4FA30FB11D2C930196F3CF809168015E
:10038000680F6093680180E0089581E0089582E03D
:1003900008950895E0919E0180919D01E81730F441
:1003A000F0E0EE53FE4F808190E008958FEF9FEFD5
:1003B000089590919E0180919D01981750F4E92F26
:1003C000F0E0EE53FE4F208130E09F5F90939E015E
:1003D00002C02FEF3FEFC901089580919D0190E089
:1003E00020919E01821B91090895CF92DF92EF9296
:1003F000FF920F931F93CF93DF937C01CB018A0170
:1004000020919F01222389F0EB016B01C40ED51EC0
:10041000CC15DD0569F06991D701ED91FC91019052
:10042000F081E02DC7010995F3CF642F0E94A1014F
:10043000C801DF91CF911F910F91FF90EF90DF9056
:10044000CF900895CF93DF931F92CDB7DEB7698326
:1004500020919F012223D1F02091C101203240F050
:1004600021E030E0FC013383228380E090E015C07E
:100470008091A001E82FF0E0EF55FE4F9981908325
:100480008F5F8093A0018093C10105C061E0CE0120
:1004900001960E94A10181E090E00F90DF91CF9141
:1004A000089580E090E008950E943D110F931F93FE
:1004B000CF93DF938C01EB01FC0180819181009748
:1004C00039F06881798161157105A1F40E94EE0F00
:1004D00088819981F801918380838A819B819383AC
:1004E00082838C819D8195838483198218821B82EB
:1004F0001A820FC0F801428153812C813D8142173D
:10050000530720F30E944B118C819D81F801958344
:1005100084831D821C82DF91CF911F910F910895DA
:100520001F920F920FB60F9211242F933F938F9328
:100530009F93AF93BF938091990190919A01A0915D
:100540009B01B0919C013091940123E0230F2D3742
:1005500020F40196A11DB11D05C026E8230F0296C7
:10056000A11DB11D209394018093990190939A014C
:10057000A0939B01B0939C0180919501909196016D
:10058000A0919701B09198010196A11DB11D809392
:10059000950190939601A0939701B0939801BF9114
:1005A000AF919F918F913F912F910F900FBE0F9020
:1005B0001F9018950F931F93CF93DF93EC018881C1
:1005C0009981009729F02A813B812617370788F403
:1005D0008B016F5F7F4F0E947710009761F09983C6
:1005E00088831B830A832C813D81232B11F4FC011A
:1005F000108281E001C080E0DF91CF911F910F91C7
:1006000008951F920F920FB60F9211242F933F93CC
:100610004F935F936F937F938F939F93AF93BF930A
:10062000EF93FF9389E092E00E94FC00FF91EF912D
:10063000BF91AF919F918F917F916F915F914F91FA
:100640003F912F910F900FBE0F901F9018951F9202
:100650000F920FB60F9211242F938F939F93EF93C6
:10066000FF93E0911902F0911A028081E0911F023C
:10067000F091200282FD12C09081809122028F5F52
:100680008F7320912302821751F0E0912202F0E053
:10069000E75FFD4F958F8093220201C08081FF911B
:1006A000EF919F918F912F910F900FBE0F901F9000
:1006B00018951F920F920FB60F9211242F933F930C
:1006C0004F935F936F937F938F939F93AF93BF935A
:1006D000EF93FF938091B900887F803609F49CC026
:1006E00068F5883209F45BC090F4803109F454C095
:1006F00038F4882309F4F6C0883009F44DC0F6C0F8
:10070000883109F44CC0803209F45DC0EFC08034F8
:1007100009F468C048F4803309F455C0883309F0FF
:10072000E5C080930602D8C0803509F44FC08835F3
:1007300009F45DC0883409F0D9C0D6C0883909F4FD
:10074000C7C0A8F4883709F467C038F4883609F4BC
:1007500063C0803709F460C0C9C0883809F4B8C0E4
:10076000803909F45FC0803809F0C0C05BC0803BAD
:1007700009F486C038F4803A09F466C0883A09F46E
:100780007FC0B4C0803C09F4A7C0883C09F4A4C071
:10079000883B09F48AC0AAC08091030210C09091DE
:1007A000050280910402981770F5E091050281E03E
:1007B0008E0F80930502F0E0EE51FE4F8081809312
:1007C000BB0085EC86C0809306028EC0E0910502D6
:1007D00081E08E0F809305028091BB00F0E0EE5126
:1007E000FE4F808390910502809104026EC0E091DB
:1007F000050281E08E0F809305028091BB00F0E03E
:10080000EE51FE4F80838091070281116DC081E01F
:100810008093020284EA61C083E080930802109210
:100820008A01CFCF80918A01803208F051C0E091D7
:100830008A0181E08E0F80938A018091BB00F0E0F5
:10084000E659FE4F8083BDCF85EC8093BC001092AB
:10085000080280918A01803230F4E0918A01F0E050
:10086000E659FE4F108260918A0170E0E0918C01A0
:10087000F0918D018AE691E0099510928A0136C0C7
:1008800084E0809308021092690110926801E0915F
:100890008E01F0918F01099580916801811105C049
:1008A00081E08093680110924801E091690181E044
:1008B0008E0F80936901F0E0E85BFE4F80818093AA
:1008C000BB009091690180916801981708F479CF75
:1008D00085E88093BC000AC085EC8093BC00109230
:1008E000080204C0109206020E949701FF91EF9146
:1008F000BF91AF919F918F917F916F915F914F9138
:100900003F912F910F900FBE0F901F9018958EBDA5
:1009100000000DB407FEFDCF8EB50895909108023A
:100920009111FCCF91E090930802909307022FEF72
:100930002093060210920502260F20930402909342
:10094000030290910302880F892B80930302809108
:100950000202813061F410920202809103028093BE
:10096000BB008091BC0083FDF8CF85EC01C085EE13
:100970008093BC00809108028130E1F380910502F0
:10098000861710F460910502A2EEB1E0E2ECF1E00E
:1009900080E0861721F09D9191938F5FFACF0895A3
:1009A000282F3091C101313208F04AC080910802ED
:1009B0008111FCCF9091DF0242E040930802209326
:1009C00007022FEF209306021092050230930402D3
:1009D000E1EAF1E0A2EEB1E020E0321721F041912E
:1009E0004D932F5FFACF1092030220910302990FCB
:1009F000922B9093030290910202913061F4109235
:100A00000202909103029093BB009091BC0093FD71
:100A1000F8CF95EC01C095EE9093BC009091080240
:100A20009230E1F3909106029F3F79F080910602A7
:100A3000803241F080910602803331F084E005C0BD
:100A400081E003C082E001C083E01092A001109217
:100A5000C10110929F0108952FB7F89480919901D8
:100A600090919A01A0919B01B0919C012FBF80931E
:100A7000110290931202A0931302B093140289E022
:100A800092E00E94C40097FF26C02FB7F89480918F
:100A9000990190919A01A0919B01B0919C012FBF67
:100AA0004091110250911202609113027091140250
:100AB000841B950BA60BB70B40910D0250910E02B3
:100AC00060910F027091100284179507A607B7076F
:100AD000B0F28FEF9FEF0895CF93DF93EC0119826F
:100AE00018821B821A821D821C8260E070E00E94C4
:100AF000DA022881398181110FC02115310519F0E1
:100B0000C9010E94EE0F198218821D821C821B826D
:100B10001A82DF91CF9108951D821C8269E371E0F2
:100B2000C901DF91CF910C944B11009769F0FC0142
:100B300001900020E9F73197AF01481B590BBC0128
:100B400089E092E00C948B0080E090E0089590E0C2
:100B5000FC01EC55FF4F2491FC01E057FF4F8491BD
:100B6000882399F090E0880F991FFC01EA57FF4F06
:100B7000A591B491FC01E458FF4F859194918FB7F2
:100B8000F894EC91E22BEC938FBF0895EF92FF92D3
:100B90000F931F93CF93DF9300D0CDB7DEB78C01B7
:100BA0000E946C050E942C0597FD21C08C32910596
:100BB000F1F089831A82F801E480F580FFEFEF1AE3
:100BC000FF0AB701C8010E94DA02882359F3F8012D
:100BD0002081318184819581BE016F5F7F4F820FBB
:100BE000931F0E944B11F801F582E482DBCFC8010C
:100BF0000F900F90DF91CF911F910F91FF90EF9089
:100C000008958F929F92AF92BF920F931F93CF93AD
:100C1000DF93CDB7DEB7A1970FB6F894DEBF0FBE56
:100C2000CDBF19A2423008F44AE08E010F5D1F4F7C
:100C3000842E912CA12CB12CA50194010E942E0F81
:100C4000E62FB901CA0101501109EA3014F4E05D40
:100C500001C0E95CD801EC93232B242B252B61F7F1
:100C6000C8010E949505A1960FB6F894DEBF0FBE8D
:100C7000CDBFDF91CF911F910F91BF90AF909F900B
:100C80008F9008958F929F92AF92BF92CF92DF92F2
:100C9000EF92FF920F931F93CF93DF936B017C0131
:100CA000142F9B01AC010E94290F882319F08CE3BB
:100CB00091E027C046015701E894B7F82FEF3FEFC6
:100CC0004FE75FE7C501B4010E94290F81110DC0F4
:100CD0002FEF3FEF4FE75FE7C501B4010E94BB0C68
:100CE00018161CF480E491E00CC02FEF3FEF4FE7A3
:100CF0005FE4C701B6010E94240F181684F484E44F
:100D000091E0DF91CF911F910F91FF90EF90DF90D5
:100D1000CF90BF90AF909F908F900C9495052FEF40
:100D20003FEF4FE75FECC701B6010E94BB0C87FDA8
:100D3000E6CF20E030E0A901C701B6010E94BB0C5C
:100D400087FF0BC06DE289E092E00E941E01EC017A
:100D5000F7FAF094F7F8F09402C0C0E0D0E000E0B9
:100D600060E070E080E09FE3101741F020E030E0A9
:100D700040E251E40E94830E0F5FF6CFA701960177
:100D80000E94170E6B017C010E94F50E4B015C0165
:100D90004AE00E940106C80FD91F1123B9F1C5010D
:100DA000B4010E94C00C9B01AC01C701B6010E94B6
:100DB000160E6B017C016EE289E092E00E941E013A
:100DC000C80FD91F20E030E040E251E4C701B6016E
:100DD0000E94210D4B015C010E94F50E6B01E12C7C
:100DE000F12C4AE0C701B6010E940106C80FD91FC5
:100DF000C701B6010E94C00C9B01AC01C501B40142
:100E00000E94160E6B017C011150E1F6CE01DF91BC
:100E1000CF911F910F91FF90EF90DF90CF90BF90F7
:100E2000AF909F908F90089590E0FC01E859FF4F9C
:100E30002491FC01EC55FF4F3491FC01E057FF4F2A
:100E4000E491EE2309F43CC0222339F1233091F0E0
:100E500038F42130A9F0223001F584B58F7D12C01D
:100E6000273091F02830A1F02430B9F4809180002F
:100E70008F7D03C0809180008F77809380000DC0AC
:100E800084B58F7784BD09C08091B0008F7703C08F
:100E90008091B0008F7D8093B000F0E0EE0FFF1FD7
:100EA000E458FF4FA591B4919FB7F894611104C025
:100EB0008C913095382302C0EC913E2B3C939FBF20
:100EC0000895EF92FF920F931F93CF93DF937C01CE
:100ED000C62F8091B202882319F0813061F141C0A0
:100EE0008091B30291E090939F018093DF02109272
:100EF000A0011092C10186EA92E00E94220281E0E4
:100F00000E94D004D1E0C0E0811101C0D0E061E0D6
:100F10008091B3020E948E04082F10929E0180934C
:100F20009D0180919E010817F1F086EA92E00E94EF
:100F3000D901182FF6CF60E08091B4020E94140707
:100F40008C2F80680E94870480E00E948704182FFD
:100F500061E08091B4020E9414071F3F11F4D5E0B4
:100F600001C0D0E0C0E0F70110838D2F9C2FDF91EE
:100F7000CF911F910F91FF90EF900895CF93DF9342
:100F8000D82FC62F8091B202882399F0813081F545
:100F900060E08091B4020E9414078D2F0E948704A4
:100FA0008C2F0E94870461E08091B4020E94140794
:100FB0001FC08091B30291E090939F018093DF0264
:100FC0001092A0011092C1016D2F86EA92E00E945A
:100FD00022026C2F86EA92E00E94220281E00E94A7
:100FE000D00421E090E0811101C020E0822F02C0F6
:100FF00080E090E0DF91CF910895EF92FF920F9300
:101000001F93CF93DF9300D0CDB7DEB77C01162FAF
:101010008091B202882319F0813081F157C080910C
:10102000B30291E090939F018093DF021092A001A0
:101030001092C10186EA92E00E94220281E00E94A1
:10104000D004811140C062E08091B3020E948E04FE
:10105000182F10929E0180939D018823B9F186EA92
:1010600092E00E94D901898380919E01811771F1DC
:1010700086EA92E00E94D9018A8328C060E08091CC
:10108000B4020E941407812F80680E94870480E0C8
:101090000E94870411E08F3F09F010E0898380E00F
:1010A0000E9487048F3F09F41F5F8A83123019F072
:1010B00000E010E002C005E010E061E08091B402C1
:1010C0000E94140705C001E010E002C000E010E03B
:1010D00089819A81F70191838083C8010F900F90D5
:1010E000DF91CF911F910F91FF90EF9008953FB73F
:1010F000F8948091950190919601A0919701B091FB
:10110000980126B5A89B05C02F3F19F00196A11D97
:10111000B11D3FBFBA2FA92F982F8827820F911D8D
:10112000A11DB11DBC01CD0142E0660F771F881FD4
:10113000991F4A95D1F70895CF93DF93CDB7DEB7C6
:1011400028970FB6F894DEBF0FBECDBF789484B554
:10115000826084BD84B5816084BD85B5826085BDB3
:1011600085B5816085BD80916E00816080936E0041
:101170001092810080918100826080938100809133
:1011800081008160809381008091800081608093E4
:1011900080008091B10084608093B1008091B000A4
:1011A00081608093B00080917A00846080937A009F
:1011B00080917A00826080937A0080917A008160C9
:1011C00080937A0080917A00806880937A001092F0
:1011D000C100E0911902F0911A0282E08083E0914F
:1011E0001502F09116021082E0911702F091180298
:1011F0008FEC808310922102E0911D02F0911E027B
:1012000086E08083E0911B02F0911C028081806166
:101210008083E0911B02F0911C02808188608083B2
:10122000E0911B02F0911C02808180688083E09134
:101230001B02F0911C0280818F7D80831886809133
:10124000B202882319F08130A9F179C010929E0171
:1012500010929D011092A0011092C10110920802FB
:1012600081E0809307021092020261E082E10E9415
:10127000140761E083E10E9414078091B9008E7F1A
:101280008093B9008091B9008D7F8093B90088E484
:101290008093B80085E48093BC0088E890E0909348
:1012A0008F0180938E0189E890E090938D01809367
:1012B0008C0145C01FB7F89480918B01811124C027
:1012C000EAE9F0E08491EEEAF0E09491E82FF0E0B2
:1012D000EE0FFF1FEA57FF4FA591B491EC91E92360
:1012E00021F461E08AE00E9414078AE00E94A705C9
:1012F0008CB580618CBD8CB580648CBD8DE00E9406
:10130000A7058BE00E94A70580918B018F5F8093DA
:101310008B011FBF8CB58C7F8CBD8DB58E7F8DBD35
:101320008CB58F7D8CBD8CB58C608CBD8091B402EA
:101330000E94A70561E08091B4020E9414071F82F9
:1013400080E197E22F812F5F2F830197D9F76FE01C
:10135000CE0101960E946107198118862091BE0274
:10136000213009F069C08091C4029091C502843691
:10137000910539F0883C910539F0C29731F483E04A
:1013800001C082E0888701C028872091C002309187
:10139000C10288852430310541F02830310539F00B
:1013A0002230310531F0846003C0886001C08C6058
:1013B00088872091C2023091C3028885203A91E04B
:1013C000390771F180F42A31310511F128F42D30FB
:1013D000310511F580612FC024333105D9F0203D4E
:1013E0003105E1F019C022309DE03907F9F040F4F1
:1013F000213493E03907B1F02C373640A9F00CC006
:1014000024309AE13907A1F02231344399F004C025
:10141000806211C080630FC080640DC080650BC006
:10142000806609C0806707C0806805C0806903C006
:10143000806A01C0806B8887688580E10E94BE0752
:1014400063E1CE0108960E94610788858F778887BF
:101450009091BF02913011F480688887688583E19C
:101460000E94BE0718868091B502813009F048C0FD
:101470008091B6029091B702853F910599F028F4CA
:101480008D37910569F482E00CC0843F21E092071A
:1014900029F0883E934021F488E003C084E001C035
:1014A0008CE088872091B8023091B9028885203D70
:1014B0003105F1F058F42A313105A1F0243331051A
:1014C00099F02D30310591F4806119C0213493E0F9
:1014D000390791F02C3796E0390781F0203A3140F6
:1014E00029F408C080620BC0806309C0806407C013
:1014F000806505C0806603C0806701C080688887FA
:10150000688581E10E94BE076FE0CE0101960E94CE
:101510006107193641F08AE291E00E94950587E360
:1015200091E00E94950589E092E00E94E60018167D
:1015300019060CF060C1CE0101960E94C605BE01DD
:101540006F5F7F4F89ED92E00E94560289819A81F8
:101550000E94EE0F89E092E00E94C400CE01019645
:101560000E94C605BE016F5F7F4F83ED92E00E942F
:10157000560289819A810E94EE0F8091D902909142
:10158000DA02009719F00E947F0C03C060E070E05F
:10159000CB0170939301609392018091D30290915B
:1015A000D402009719F00E947F0C03C060E070E045
:1015B000CB01709391016093900100E010E0809165
:1015C0009001909191010817190708F014C10E9429
:1015D00077084AE00E9401068AE391E00E9495059F
:1015E00068E2CE0101960E94FD070097A9F00597D9
:1015F00051F48091CF029091D00201969093D00245
:101600008093CF0209C08091D1029091D2020196BD
:101610009093D2028093D102E980FA806091C00257
:101620007091C1027695679580E090E00E94C00CB1
:101630004B015C01B701FF0C880B990B0E94C20C97
:1016400023E23BED49E75DE30E94210D9B01AC01E4
:10165000C501B4010E94210D20E030E04AE754E4C6
:101660000E94830E44E00E9442068AE391E00E94B9
:1016700095056AE2CE0101960E94FD070097A9F048
:10168000059751F48091CF029091D00201969093EA
:10169000D0028093CF0209C08091D1029091D202F2
:1016A00001969093D2028093D102E980FA806091F2
:1016B000C0027091C1027695679580E090E00E942B
:1016C000C00C4B015C01B701FF0C880B990B0E9409
:1016D000C20C23E23BED49E75DE30E94210D9B0133
:1016E000AC01C501B4010E94210D20E030E04AE7C1
:1016F00054E40E94830E44E00E9442068AE391E093
:101700000E9495056CE2CE0101960E94FD070097AC
:10171000A9F0059751F48091CF029091D0020196E3
:101720009093D0028093CF0209C08091D102909112
:10173000D20201969093D2028093D102E980FA807E
:101740006091C0027091C1027695679580E090E04B
:101750000E94C00C4B015C01B701FF0C880B990B78
:101760000E94C20C23E23BED49E75DE30E94210D9C
:101770009B01AC01C501B4010E94210D20E030E0C5
:101780004AE754E40E94830E44E00E94420687E345
:1017900091E00E949505C0909201D0909301E12CB8
:1017A000F12C0E9477084B015C01C114D104E104C3
:1017B000F104F1F00E947708DC01CB018819990946
:1017C000AA09BB09883E9340A105B10570F321E049
:1017D000C21AD108E108F10888EE880E83E0981E4D
:1017E000A11CB11CC114D104E104F10419F7DDCF2F
:1017F0000F5F1F4FE4CE0E948D0195CE8091D302E2
:101800009091D4020E94EE0F8091D9029091DA0259
:101810000C94EE0FE9E0F2E01382128288EE93E07E
:10182000A0E0B0E084839583A683B7832AE031E00B
:101830003183208325EC30E03587248724EC30E0A9
:101840003787268720EC30E0318B208B21EC30E08D
:10185000338B228B22EC30E0358B248B26EC30E06E
:10186000378B268B118E128E138E148EE6EAF2E0E1
:101870001382128284839583A683B7838CE191E0DF
:101880009183808389ED92E00E946C0583ED92E064
:101890000E946C05E2EBF2E010828AE082838AE625
:1018A000818381E0838320ED37E03583248320EA40
:1018B00031E03783268340E951E0518740878287B2
:1018C00083878487858740E150E057874687318B3F
:1018D000208B24E630E0338B228B848B858B868BA8
:1018E000878B88EB9BE0918F808F8AE090E0938FCD
:1018F000828F148E168E158E10A2178E08951F9348
:10190000FC0199278827BC01E89411911032E9F372
:10191000193010F01E30C8F31B3251F01D3249F45B
:10192000689406C00E94A60C610F711D811D911D57
:10193000119110531A30B0F33EF490958095709544
:1019400061957F4F8F4F9F4F1F910895592F482FBB
:10195000372F262F660F771F881F991F660F771F57
:10196000881F991F620F731F841F951F660F771FB3
:10197000881F991F08950E94FD0C08F481E00895C6
:10198000E89409C097FB3EF4909580957095619519
:101990007F4F8F4F9F4F9923A9F0F92F96E9BB27CF
:1019A0009395F695879577956795B795F111F8CF4B
:1019B000FAF4BB0F11F460FF1BC06F5F7F4F8F4FB6
:1019C0009F4F16C0882311F096E911C0772321F0AC
:1019D0009EE8872F762F05C0662371F096E8862F44
:1019E00070E060E02AF09A95660F771F881FDAF79B
:1019F000880F9695879597F90895990F0008550FC8
:101A0000AA0BE0E8FEEF16161706E807F907C0F084
:101A100012161306E407F50798F0621B730B840B8C
:101A2000950B39F40A2661F0232B242B252B21F466
:101A300008950A2609F4A140A6958FEF811D811D06
:101A400008950E94340D0C94A50D0E94970D38F056
:101A50000E949E0D20F0952311F00C948E0D0C9495
:101A6000940D11240C94D90D0E94B60D70F3959F1E
:101A7000C1F3950F50E0551F629FF001729FBB2785
:101A8000F00DB11D639FAA27F00DB11DAA1F649F21
:101A90006627B00DA11D661F829F2227B00DA11DD4
:101AA000621F739FB00DA11D621F839FA00D611D5A
:101AB000221F749F3327A00D611D231F849F600D7B
:101AC000211D822F762F6A2F11249F5750409AF0A4
:101AD000F1F088234AF0EE0FFF1FBB1F661F771F30
:101AE000881F91505040A9F79E3F510580F00C94FB
:101AF0008E0D0C94D90D5F3FE4F3983ED4F3869598
:101B000077956795B795F795E7959F5FC1F7FE2B9A
:101B1000880F911D9695879597F9089597F99F6776
:101B200080E870E060E008959FEF80EC0895002465
:101B30000A941616170618060906089500240A9432
:101B400012161306140605060895092E0394000CB8
:101B500011F4882352F0BB0F40F4BF2B11F460FF47
:101B600004C06F5F7F4F8F4F9F4F089557FD905870
:101B7000440F551F59F05F3F71F04795880F97FB51
:101B8000991F61F09F3F79F087950895121613060B
:101B90001406551FF2CF4695F1DF08C0161617063A
:101BA0001806991FF1CF869571056105089408956F
:101BB000E894BB2766277727CB0197F908952F92E2
:101BC0003F924F925F926F927F928F929F92AF92CD
:101BD000BF92CF92DF92EF92FF920F931F93CF931A
:101BE000DF93CDB7DEB7CA1BDB0B0FB6F894DEBFB1
:101BF0000FBECDBF09942A88398848885F846E84D7
:101C00007D848C849B84AA84B984C884DF80EE8020
:101C1000FD800C811B81AA81B981CE0FD11D0FB629
:101C2000F894DEBF0FBECDBFED0108955058BB271D
:101C3000AA270E942E0E0C94A50D0E94970D38F035
:101C40000E949E0D20F039F49F3F19F426F40C9465
:101C5000940D0EF4E095E7FB0C948E0DE92F0E9495
:101C6000B60D58F3BA17620773078407950720F07B
:101C700079F4A6F50C94D80D0EF4E0950B2EBA2F3E
:101C8000A02D0B01B90190010C01CA01A001112482
:101C9000FF27591B99F0593F50F4503E68F11A162E
:101CA000F040A22F232F342F4427585FF3CF4695BF
:101CB00037952795A795F0405395C9F77EF41F16E1
:101CC000BA0B620B730B840BBAF09150A1F0FF0FAB
:101CD000BB1F661F771F881FC2F70EC0BA0F621F97
:101CE000731F841F48F4879577956795B795F79587
:101CF0009E3F08F0B0CF9395880F08F09927EE0F1C
:101D00009795879508950E94970E0C94A50D0E94B3
:101D10009E0D58F00E94970D40F029F45F3F29F086
:101D20000C948E0D51110C94D90D0C94940D0E94AD
:101D3000B60D68F39923B1F3552391F3951B550B19
:101D4000BB27AA2762177307840738F09F5F5F4F8E
:101D5000220F331F441FAA1FA9F335D00E2E3AF0CD
:101D6000E0E832D091505040E695001CCAF72BD0E5
:101D7000FE2F29D0660F771F881FBB1F2617370736
:101D80004807AB07B0E809F0BB0B802DBF01FF2768
:101D900093585F4F3AF09E3F510578F00C948E0DAA
:101DA0000C94D90D5F3FE4F3983ED4F38695779574
:101DB0006795B795F7959F5FC9F7880F911D969521
:101DC000879597F90895E1E0660F771F881FBB1F7D
:101DD000621773078407BA0720F0621B730B840B2A
:101DE000BA0BEE1F88F7E09508950E94BE0D88F0AB
:101DF0009F5798F0B92F9927B751B0F0E1F0660FCF
:101E0000771F881F991F1AF0BA95C9F714C0B1300F
:101E100091F00E94D80DB1E008950C94D80D672F71
:101E2000782F8827B85F39F0B93FCCF3869577953E
:101E30006795B395D9F73EF4909580957095619527
:101E40007F4F8F4F9F4F08950E94FD0C08F48FEF36
:101E500008950E94FD0C880B990B0895A1E21A2E9B
:101E6000AA1BBB1BFD010DC0AA1FBB1FEE1FFF1F3E
:101E7000A217B307E407F50720F0A21BB30BE40B8E
:101E8000F50B661F771F881F991F1A9469F76095D5
:101E90007095809590959B01AC01BD01CF0108958F
:101EA000EE0FFF1F0590F491E02D09940F931F93FF
:101EB000CF93DF938230910510F482E090E0E091BF
:101EC000E202F091E30220E030E0A0E0B0E03097E1
:101ED00019F1408151810281138148175907C8F0D7
:101EE0008417950769F4109731F012960C931297A6
:101EF00013961C9327C00093E2021093E30222C0C2
:101F00002115310519F04217530718F49A01BD0144
:101F1000EF01DF01F801DBCF21153105F9F0281BB6
:101F2000390B2430310580F48A819B81611571055C
:101F300021F0FB019383828304C09093E30280939A
:101F4000E202FE01329644C0FE01E20FF31F8193CC
:101F5000919322503109398328833AC02091E002BD
:101F60003091E102232B41F42091020130910301D1
:101F70003093E1022093E0022091000130910101B1
:101F80002115310541F42DB73EB740910401509120
:101F90000501241B350BE091E002F091E102E2170C
:101FA000F307A0F42E1B3F0B2817390778F0AC017C
:101FB0004E5F5F4F2417350748F04E0F5F1F509359
:101FC000E1024093E0028193919302C0E0E0F0E0EF
:101FD000CF01DF91CF911F910F910895CF93DF93A0
:101FE000009709F481C0FC01329713821282A091FC
:101FF000E202B091E302109781F420813181820FD7
:10200000931F2091E0023091E1022817390751F522
:10201000F093E102E093E00267C0ED0120E030E0E0
:10202000CE17DF0740F44A815B819E0141155105BF
:10203000F1F0EA01F5CFD383C28340815181840F4F
:10204000951FC817D90759F488819981840F951F66
:102050000296918380838A819B8193838283211559
:10206000310529F4F093E302E093E2023DC0E90177
:10207000FB83EA8349915991C40FD51FEC17FD07E3
:1020800061F480819181840F951F0296E901998303
:102090008883828193819B838A83E0E0F0E01296BB
:1020A0008D919C911397009719F0FD01DC01F7CFFA
:1020B0008D919C9111979D012E5F3F4F820F931F31
:1020C0002091E0023091E1022817390769F4309736
:1020D00029F41092E3021092E20202C013821282EB
:1020E000B093E102A093E002DF91CF910895A0E0C8
:1020F000B0E0EDE7F0E10C94E30DEC01009721F482
:10210000CB010E94560FB4C0FC01E60FF71F9C01E3
:1021100022503109E217F30708F4A8C0D9010D9144
:102120001C91119706171707B0F00530110508F438
:102130009BC0C80104978617970708F495C0025002
:102140001109061B170B019311936D937C93CF011B
:102150000E94EE0F89C05B01A01AB10A4C01800EEB
:10216000911EA091E202B091E302612C712CE12C4E
:10217000F12C109709F446C08D919C911197A815E8
:10218000B905B1F56C0142E0C40ED11CCA14DB04E0
:1021900078F14C018A189B08640142E0C40ED11CFE
:1021A0001296BC9012971396AC91B5E0CB16D10461
:1021B00040F0B282A38391828082D9016D937C9397
:1021C00009C00E5F1F4F800F911FF901918380831B
:1021D000EB2DFA2FE114F10431F0D7011396FC93A3
:1021E000EE93129741C0F093E302E093E2023CC009
:1021F0006816790608F43C017D0112960D90BC9199
:10220000A02DB7CF8091E0029091E1028816990647
:10221000E1F466167706C8F48091000190910101FF
:10222000009741F48DB79EB740910401509105018C
:10223000841B950BE817F907C8F4F093E102E093CB
:10224000E002F901718360830FC0CB010E94560F39
:102250007C01009759F0A801BE010E944211CE01F5
:102260000E94EE0FC70104C0CE0102C080E090E0E2
:10227000CDB7DEB7EEE00C94FF0D81E090E0F8946E
:102280000C945211FB01DC0102C001900D924150EF
:102290005040D8F70895FB01DC0101900D92002019
:1022A000E1F7089510E0CDE5D0E004C0FE010E9402
:0E22B000500F2196CE35D107C9F7F894FFCF15
:1022BE000000E4028000000000001E018B00B5004B
:1022CE006B01E600C400D800000000002202F501F8
:1022DE005102C901ED01D901CA01446576696365F0
:1022EE00206572726F72000D0A002C006E616E0016
:0822FE00696E66006F76660050
:00000001FF
