:100000000C9463000C948B000C948B000C948B006C
:100010000C948B000C948B000C948B000C948B0034
:100020000C948B000C948B000C948B000C948B0024
:100030000C948B000C948B000C948B000C948B0014
:100040000C94CB020C948B000C943B030C94150382
:100050000C948B000C948B000C948B000C948B00F4
:100060000C948B000C948B000000000023002600F1
:10007000290000000000240027002A0000000000E2
:10008000250028002B0004040404040404040202D4
:100090000202020203030303030301020408102007
:1000A0004080010204081020010204081020000012
:1000B0000008000201000003040700000000000027
:1000C0000000B2033F0611241FBECFEFD8E0DEBF11
:1000D000CDBF21E0AEE1B1E001C01D92A63DB20767
:1000E000E1F711E0A0E0B1E0E0E1F2E102C005904B
:1000F0000D92AE31B107D9F710E0C2E6D0E004C0EE
:100100002197FE010E94F906C136D107C9F70E9466
:100110002E040C94FB080C94000090E0FC01E255C6
:10012000FF4F2491FC01E656FF4F3491FC01EA5742
:10013000FF4FE491EE2309F43CC0222339F1233030
:1001400091F038F42130A9F0223001F584B58F7D8B
:1001500012C0273091F02830A1F02430B9F48091FA
:1001600080008F7D03C0809180008F778093800016
:100170000DC084B58F7784BD09C08091B0008F77A2
:1001800003C08091B0008F7D8093B000F0E0EE0F4F
:10019000FF1FE458FF4FA591B4919FB7F8946111E8
:1001A00004C08C913095382302C0EC913E2B3C93D7
:1001B0009FBF08953FB7F894809125019091260143
:1001C000A0912701B091280126B5A89B05C02F3F1B
:1001D00019F00196A11DB11D3FBFBA2FA92F982F6D
:1001E0008827820F911DA11DB11DBC01CD0142E0E8
:1001F000660F771F881F991F4A95D1F708950895B4
:10020000CF92DF92EF92FF920F931F93CF93DF93E2
:100210006C017A018B01C0E0D0E0CE15DF0581F0E2
:10022000D8016D918D01D601ED91FC910190F08185
:10023000E02DC6010995892B11F02196EECF7E01A4
:10024000C701DF91CF911F910F91FF90EF90DF9049
:10025000CF90089580E090E00895FC01538D448D87
:10026000252F30E0842F90E0821B930B541710F061
:10027000CF96089501970895FC01918D828D98176E
:1002800061F0828DDF01A80FB11D5D968C91928D7A
:100290009F5F9F73928F90E008958FEF9FEF089577
:1002A0002FB7F8948091290190912A01A0912B01F8
:1002B000B0912C012FBF8093350190933601A0930C
:1002C0003701B09338018DE291E00E943C0197FF25
:1002D00026C02FB7F8948091290190912A01A0910E
:1002E0002B01B0912C012FBF409135015091360167
:1002F0006091370170913801841B950BA60BB70BE9
:10030000409131015091320160913301709134017B
:1003100084179507A607B707B0F28FEF9FEF0895F0
:10032000FC01918D828D981731F0828DE80FF11DBF
:10033000858D90E008958FEF9FEF0895FC01918DDA
:10034000228D892F90E0805C9F4F821B91098F73D3
:10035000992708958DE291E00E949E0121E0892B6A
:1003600009F420E0822F0895FC01848DDF01A80F9D
:10037000B11DA35ABF4F2C91848D90E001968F73CD
:100380009927848FA689B7892C93A089B1898C91EC
:10039000837080648C93938D848D981306C002883B
:1003A000F389E02D80818F7D80830895EF92FF9205
:1003B0000F931F93CF93DF93EC0181E0888F9B8D88
:1003C0008C8D981305C0E889F989808185FD26C048
:1003D000F62E0B8D10E00F5F1F4F0F731127E02ECD
:1003E0008C8DE8120CC00FB607FCFACFE889F989AA
:1003F000808185FFF5CFCE010E94B401F1CF8B8DB6
:10040000FE01E80FF11DE35AFF4FF0829FB7F89409
:100410000B8FEA89FB89808180620AC09FB7F894BC
:10042000EE89FF896083E889F9898081837080641F
:1004300080839FBF81E090E0DF91CF911F910F916A
:10044000FF90EF900895CF93DF93EC01888D882380
:10045000C9F0EA89FB89808185FD05C0A889B98931
:100460008C9186FD0FC00FB607FCF5CF808185FF0C
:10047000F2CFA889B9898C9185FFEDCFCE010E947A
:10048000B401E7CFDF91CF91089580E090E0892B10
:1004900029F00E94AA0181110C9400000895009790
:1004A00069F0FC0101900020E9F73197AF01481B8A
:1004B000590BBC018DE291E00C94000180E090E0CA
:1004C00008958F929F92AF92BF920F931F93CF93F5
:1004D000DF93CDB7DEB7A1970FB6F894DEBF0FBE9E
:1004E000CDBF19A2423008F44AE08E010F5D1F4FC4
:1004F000842E912CA12CB12CA50194010E94B80648
:10050000E62FB901CA0101501109EA3014F4E05D87
:1005100001C0E95CD801EC93232B242B252B61F738
:10052000C8010E944F02A1960FB6F894DEBF0FBE1D
:10053000CDBFDF91CF911F910F91BF90AF909F9052
:100540008F9008950E94E6080F931F93CF93DF9337
:10055000EC0188819981009729F02A813B81261737
:10056000370788F48B016F5F7F4F0E942008009748
:1005700061F0998388831B830A832C813D81232B1F
:1005800011F4FC01108281E001C080E0DF91CF9185
:100590001F910F9108951F920F920FB60F92112481
:1005A0002F933F938F939F93AF93BF938091290194
:1005B00090912A01A0912B01B0912C01309124013E
:1005C00023E0230F2D3720F40196A11DB11D05C096
:1005D00026E8230F0296A11DB11D209324018093CC
:1005E000290190932A01A0932B01B0932C018091B3
:1005F000250190912601A0912701B0912801019633
:10060000A11DB11D8093250190932601A093270180
:10061000B0932801BF91AF919F918F913F912F91FE
:100620000F900FBE0F901F9018951F920F920FB64C
:100630000F9211242F933F934F935F936F937F9368
:100640008F939F93AF93BF93EF93FF938DE291E0CE
:100650000E94B401FF91EF91BF91AF919F918F9153
:100660007F916F915F914F913F912F910F900FBEAE
:100670000F901F9018951F920F920FB60F92112492
:100680002F938F939F93EF93FF93E0913D01F09110
:100690003E018081E0914301F091440182FD12C04E
:1006A0009081809146018F5F8F732091470182175F
:1006B00051F0E0914601F0E0E35DFE4F958F8093AD
:1006C000460101C08081FF91EF919F918F912F9101
:1006D0000F900FBE0F901F901895CF92DF92EF9260
:1006E000FF920F931F93E82FF92F05C001501109B6
:1006F0002109310961F1908196239417B9F305C05E
:10070000015011092109310911F1908196239413A7
:10071000F7CFC12CD12CE12CF12C0AC08FEFC81AD5
:10072000D80AE80AF80A0C151D052E053F0579F0D0
:1007300080818623841791F36C2D7D2D8E2D9F2D26
:100740001F910F91FF90EF90DF90CF90089560E0A0
:1007500070E080E090E01F910F91FF90EF90DF90AC
:10076000CF9008951092300110922F0188EE93E0FF
:10077000A0E0B0E08093310190933201A093330167
:10078000B09334018AE091E090932E0180932D0183
:1007900085EC90E090933A018093390184EC90E0ED
:1007A00090933C0180933B0180EC90E090933E015C
:1007B00080933D0181EC90E09093400180933F0154
:1007C00082EC90E0909342018093410186EC90E0AE
:1007D0009093440180934301109246011092470187
:1007E000109248011092490187E090E09093D10166
:1007F0008093D0011092CB011092CA011092CD01CA
:100800001092CC011092CF011092CE0160E070E006
:100810008AEC91E00E94A4022091CA013091CB01A0
:10082000811113C02115310519F0C9010E949707E4
:100830001092CB011092CA011092CF011092CE01FA
:100840001092CD011092CC0108951092CF01109218
:10085000CE016CE171E0C9010C94F408CF93DF93F1
:10086000CDB7DEB728970FB6F894DEBF0FBECDBF69
:10087000789484B5826084BD84B5816084BD85B57B
:10088000826085BD85B5816085BD80916E00816087
:1008900080936E001092810080918100826080932D
:1008A000810080918100816080938100809180002F
:1008B0008160809380008091B10084608093B1005A
:1008C0008091B00081608093B00080917A00846054
:1008D00080937A0080917A00826080937A00809180
:1008E0007A00816080937A0080917A00806880939A
:1008F0007A001092C100E0913D01F0913E0182E04A
:100900008083E0913901F0913A011082E0913B013E
:10091000F0913C018FEC808310924501E091410100
:10092000F091420186E08083E0913F01F091400127
:10093000808180618083E0913F01F091400180815E
:1009400088608083E0913F01F09140018081806860
:100950008083E0913F01F091400180818F7D808311
:1009600063E0262E312C7FE0872E912C8DE291E0E2
:100970000E949E01181619060CF084C01A82198272
:100980001C821B821E821D8260E070E0CE010196F7
:100990000E94A40229813A8181110DC021153105DF
:1009A00019F0C9010E9497071A8219821E821D82BE
:1009B0001C821B8207C01E821D826CE171E0C9018E
:1009C0000E94F4080E94500197FD1CC08F83188676
:1009D000ED80FE802FEFE21AF20AB701CE010196F8
:1009E0000E94A402882371F329813A818D819E811E
:1009F000BE01695F7F4F820F931F0E94F408FE8241
:100A0000ED82E0CF8091CA019091CB01009741F037
:100A100069817A816115710509F01EC10E949707ED
:100A200089819A819093CB018093CA018B819C81AB
:100A30009093CD018093CC018D819E819093CF01C5
:100A40008093CE011A82198289819A810E94970728
:100A50008091CA019091CB01009719F00E94450640
:100A600003C060E070E0CB0160932001709321012E
:100A7000809322019093230181E090E090931F01E5
:100A800080931E0180911E0190911F01019709F032
:100A9000E0C058EEA52E53E0B52E0E94DA004AE0E1
:100AA0000E94610288E191E00E944F028091D00192
:100AB0009091D1019927FC01E656FF4F2491FC014A
:100AC000EA57FF4FE491EE23A1F0F0E0CF01880F49
:100AD000991FFC01EE58FF4FA591B491FC01E45819
:100AE000FF4F859194918FB7F894EC912E2B2C9316
:100AF0008FBF60E08091D0010E948D00C1010197FD
:100B0000F1F761E08091D0010E948D00C40101974E
:100B1000F1F760E08091D0010E948D008091D001BA
:100B20009091D1019927FC01E656FF4F2491FC01D9
:100B3000EA57FF4FE491EE23C9F0F0E0CF01880FB0
:100B4000991FFC01EE58FF4FA591B491FC01E458A8
:100B5000FF4F859194914FB7F8943C9120953223A3
:100B60003C93DC01EC912E232C934FBF8091D0015C
:100B70009091D1019927FC01E656FF4F6491FC0149
:100B8000EA57FF4FE491F0E0EE0FFF1FE859FF4FE7
:100B90008591949100E412E42FE030E0462F0E940A
:100BA0006D03611571058105910549F0DC01CB01EB
:100BB0000196A11DB11DBC01CD019F7003C060E075
:100BC00070E0CB012AE330E040E050E00E94DA061A
:100BD000CA01B9014AE00E9461028AE191E00E94E3
:100BE0004F02C0902001D0902101E0902201F090AE
:100BF00023010E94DA002B013C01C114D104E1045D
:100C0000F104F1F00E94DA00DC01CB0184199509AE
:100C1000A609B709883E9340A105B10570F3B1E07C
:100C2000CB1AD108E108F108E8EE4E0EE3E05E1EB3
:100C3000611C711CC114D104E104F10419F7DDCF6A
:100C400021E0A21AB10809F028CF10921F011092DA
:100C50001E010E9445028ACE4091CC015091CD01E7
:100C60002D813E814217530708F4D8CE0E94F40824
:100C70008D819E819093CF018093CE01E5CE8091AE
:100C8000CA019091CB010C9497071F93FC019927FF
:100C90008827BC01E89411911032E9F3193010F063
:100CA0001E30C8F31B3251F01D3249F4689406C05F
:100CB0000E946C06610F711D811D911D11911053D1
:100CC0001A30B0F33EF490958095709561957F4F02
:100CD0008F4F9F4F1F910895592F482F372F262F41
:100CE000660F771F881F991F660F771F881F991F30
:100CF000620F731F841F951F660F771F881F991F30
:100D000008952F923F924F925F926F927F928F92AF
:100D10009F92AF92BF92CF92DF92EF92FF920F938A
:100D20001F93CF93DF93CDB7DEB7CA1BDB0B0FB694
:100D3000F894DEBF0FBECDBF09942A883988488851
:100D40005F846E847D848C849B84AA84B984C884E7
:100D5000DF80EE80FD800C811B81AA81B981CE0FDE
:100D6000D11D0FB6F894DEBF0FBECDBFED010895C3
:100D7000A1E21A2EAA1BBB1BFD010DC0AA1FBB1F9F
:100D8000EE1FFF1FA217B307E407F50720F0A21B11
:100D9000B30BE40BF50B661F771F881F991F1A947E
:100DA00069F760957095809590959B01AC01BD01A8
:100DB000CF010895052E97FB1EF400940E94F106C2
:100DC00057FD07D00E94B80607FC03D04EF40C94E0
:100DD000F10650954095309521953F4F4F4F5F4F0D
:100DE000089590958095709561957F4F8F4F9F4F97
:100DF0000895EE0FFF1F0590F491E02D09940F93D5
:100E00001F93CF93DF938230910510F482E090E03E
:100E1000E091D401F091D50120E030E0A0E0B0E015
:100E2000309719F140815181028113814817590788
:100E3000C8F08417950769F4109731F012960C9357
:100E4000129713961C9327C00093D4011093D501D9
:100E500022C02115310519F04217530718F49A01E1
:100E6000BD01EF01DF01F801DBCF21153105F9F0FC
:100E7000281B390B2430310580F48A819B81611550
:100E8000710521F0FB019383828304C09093D50107
:100E90008093D401FE01329644C0FE01E20FF31F9D
:100EA0008193919322503109398328833AC020914C
:100EB000D2013091D301232B41F4209102013091D2
:100EC00003013093D3012093D2012091000130918E
:100ED00001012115310541F42DB73EB740910401C0
:100EE00050910501241B350BE091D201F091D30103
:100EF000E217F307A0F42E1B3F0B2817390778F0F1
:100F0000AC014E5F5F4F2417350748F04E0F5F1F4F
:100F10005093D3014093D2018193919302C0E0E0BA
:100F2000F0E0CF01DF91CF911F910F910895CF9302
:100F3000DF93009709F481C0FC013297138212827B
:100F4000A091D401B091D501109781F42081318115
:100F5000820F931F2091D2013091D30128173907B6
:100F600051F5F093D301E093D20167C0ED0120E089
:100F700030E0CE17DF0740F44A815B819E014115C6
:100F80005105F1F0EA01F5CFD383C283408151814D
:100F9000840F951FC817D90759F488819981840F48
:100FA000951F0296918380838A819B81938382839C
:100FB0002115310529F4F093D501E093D4013DC00A
:100FC000E901FB83EA8349915991C40FD51FEC17BE
:100FD000FD0761F480819181840F951F0296E901DC
:100FE00099838883828193819B838A83E0E0F0E008
:100FF00012968D919C911397009719F0FD01DC01D9
:10100000F7CF8D919C9111979D012E5F3F4F820FDD
:10101000931F2091D2013091D3012817390769F429
:10102000309729F41092D5011092D40102C0138296
:101030001282B093D301A093D201DF91CF91089592
:10104000A0E0B0E0E6E2F8E00C948506EC01009741
:1010500021F4CB010E94FF06B4C0FC01E60FF71F8C
:101060009C0122503109E217F30708F4A8C0D90106
:101070000D911C91119706171707B0F00530110557
:1010800008F49BC0C80104978617970708F495C019
:1010900002501109061B170B019311936D937C935A
:1010A000CF010E94970789C05B01A01AB10A4C01C9
:1010B000800E911EA091D401B091D501612C712CAC
:1010C000E12CF12C109709F446C08D919C91119759
:1010D000A815B905B1F56C0142E0C40ED11CCA14C3
:1010E000DB0478F14C018A189B08640142E0C40ECD
:1010F000D11C1296BC9012971396AC91B5E0CB160A
:10110000D10440F0B282A38391828082D9016D9391
:101110007C9309C00E5F1F4F800F911FF9019183CF
:101120008083EB2DFA2FE114F10431F0D7011396EF
:10113000FC93EE93129741C0F093D501E093D40154
:101140003CC06816790608F43C017D0112960D90AA
:10115000BC91A02DB7CF8091D2019091D301881678
:101160009906E1F466167706C8F480910001909123
:101170000101009741F48DB79EB740910401509151
:101180000501841B950BE817F907C8F4F093D30108
:10119000E093D201F901718360830FC0CB010E94FB
:1011A000FF067C01009759F0A801BE010E94EB08E0
:1011B000CE010E949707C70104C0CE0102C080E0A3
:1011C00090E0CDB7DEB7EEE00C94A10681E090E0B0
:1011D000F8940C94FB08FB01DC0102C001900D9215
:1011E00041505040D8F70895FB01DC0101900D9269
:1011F0000020E1F7089510E0C2E6D0E004C0FE014F
:101200000E94F9062196C336D107C9F7F894FFCF9B
:101210000000D601800000000000D60100012D0171
:0E12200023029E013C0190012C000D0A0000EB
:00000001FF
