:100000000C9459000C9481000C9481000C94810094
:100010000C9481000C9481000C9481000C9481005C
:100020000C9481000C9481000C9481000C9481004C
:100030000C9481000C9481000C9481000C9481003C
:100040000C94C7020C9481000C945E030C9438034A
:100050000C9481000C9481000C9481000C9481001C
:100060000C9474040C94810000000000250028000A
:100070002B00040404040404040402020202020229
:10008000030303030303010204081020408001025C
:1000900004081020010204081020000000080002DB
:1000A0000100000304070000000000000000CA0A6D
:1000B000740A11241FBECFEFD8E0DEBFCDBF23E00E
:1000C000AEE9B1E001C01D92A234B207E1F711E040
:1000D000A0E0B1E0EEE0F1E202C005900D92AE3991
:1000E000B107D9F710E0C8E5D0E004C02197FE01C0
:1000F0000E94780EC735D107C9F70E943E080C94BC
:100100007A100C940000CF93DF93EC01072E000CC3
:10011000880B990B0E94EA0B2F81388549855A85F7
:100120000E94490C20E030E04AE754E40E94AB0D05
:10013000DF91CF910895089508950895CF92DF92A9
:10014000EF92FF920F931F93CF93DF936C017A018D
:100150008B01C0E0D0E0CE15DF0581F0D8016D91B4
:100160008D01D601ED91FC910190F081E02DC60149
:100170000995892B11F02196EECF7E01C701DF9101
:10018000CF911F910F91FF90EF90DF90CF90089546
:10019000FC01538D448D252F30E0842F90E0821B8D
:1001A000930B541710F0CF96089501970895FC0112
:1001B000918D828D981761F0828DDF01A80FB11D9E
:1001C0005D968C91928D9F5F9F73928F90E00895C2
:1001D0008FEF9FEF0895FC01918D828D981731F07C
:1001E000828DE80FF11D858D90E008958FEF9FEFD0
:1001F0000895FC01918D228D892F90E0805C9F4FA6
:10020000821B91098F739927089581E692E00E94DD
:10021000F90021E0892B09F420E0822F0895FC01E8
:10022000848DDF01A80FB11DA35ABF4F2C91848D7F
:1002300090E001968F739927848FA689B7892C93B4
:10024000A089B1898C91837080648C93938D848D07
:10025000981306C00288F389E02D80818F7D80830A
:100260000895EF92FF920F931F93CF93DF93EC01CA
:1002700081E0888F9B8D8C8D981305C0E889F98962
:10028000808185FD26C0F62E0B8D10E00F5F1F4F7D
:100290000F731127E02E8C8DE8120CC00FB607FCEF
:1002A000FACFE889F989808185FFF5CFCE010E94D8
:1002B0000F01F1CF8B8DFE01E80FF11DE35AFF4FC7
:1002C000F0829FB7F8940B8FEA89FB898081806266
:1002D0000AC09FB7F894EE89FF896083E889F9899D
:1002E00080818370806480839FBF81E090E0DF9194
:1002F000CF911F910F91FF90EF900895CF93DF93CF
:10030000EC01888D8823C9F0EA89FB89808185FD0D
:1003100005C0A889B9898C9186FD0FC00FB607FC6E
:10032000F5CF808185FFF2CFA889B9898C9185FFAF
:10033000EDCFCE010E940F01E7CFDF91CF9108955D
:1003400080E090E0892B29F00E94050181110C9436
:100350000000089581E0603821F0662311F080E00C
:10036000089508956051710981E06137710508F0C1
:1003700080E008950F931F93CF93DF93CDB7DEB73F
:1003800027970FB6F894DEBF0FBECDBF5E836F8395
:100390002E813F81255F310981E02C3D364008F0F8
:1003A00080E027960FB6F894DEBF0FBECDBFDF9179
:1003B000CF911F910F9108958091050290E02091B7
:1003C0000602821B9109089581E0603121F06623C5
:1003D00011F080E00895089581E008950F931F9330
:1003E000CF93DF93CDB7DEB727970FB6F894DEBF74
:1003F0000FBECDBF5E836F832E813F8122503109B6
:1004000081E02F30310508F080E027960FB6F89490
:10041000DEBF0FBECDBFDF91CF911F910F91089529
:1004200085ED8093BC008091BC0084FDFCCF1092D0
:100430003C0208954091BE01262F30E0240F311D6B
:1004400021323105DCF420913C022430C9F4FC0156
:1004500080E090E0861758F43091BE012191DC01D4
:10046000A256BE4FA30FB11D2C930196F3CF8091DE
:10047000BE01680F6093BE0180E0089581E0089599
:1004800082E008950895E091060280910502E81740
:1004900030F4F0E0EF51FE4F808190E008958FEF4F
:1004A0009FEF08959091060280910502981750F4ED
:1004B000E92FF0E0EF51FE4F208130E09F5F9093F5
:1004C000060202C02FEF3FEFC9010895CF92DF92DD
:1004D000EF92FF920F931F93CF93DF937C01CB0199
:1004E0008A0120913D02222389F0EB016B01C40EA9
:1004F000D51ECC15DD0569F06991D701ED91FC9110
:100500000190F081E02DC7010995F3CF642F0E947F
:100510001A02C801DF91CF911F910F91FF90EF90C8
:10052000DF90CF900895CF93DF931F92CDB7DEB7C2
:10053000698320913D022223D1F020916002203274
:1005400040F021E030E0FC013383228380E090E042
:1005500015C080913E02E82FF0E0E15CFD4F9981EB
:1005600090838F5F80933E028093600205C061E0BC
:10057000CE0101960E941A0281E090E00F90DF9177
:10058000CF91089580E090E008950E9465101F9239
:100590000F920FB60F9211242F933F938F939F9337
:1005A000AF93BF938091120290911302A091140215
:1005B000B091150230910D0223E0230F2D3720F466
:1005C0000196A11DB11D05C026E8230F0296A11DAD
:1005D000B11D20930D028093120290931302A093F9
:1005E0001402B093150280910E0290910F02A09117
:1005F0001002B09111020196A11DB11D80930E024F
:1006000090930F02A0931002B0931102BF91AF918B
:100610009F918F913F912F910F900FBE0F901F9040
:1006200018950F931F93CF93DF93EC0188819981E5
:10063000009729F02A813B812617370788F48B0120
:100640006F5F7F4F0E949F0F009761F099838883AF
:100650001B830A832C813D81232B11F4FC01108222
:1006600081E001C080E0DF91CF911F910F9108954B
:100670001F920F920FB60F9211242F933F934F9317
:100680005F936F937F938F939F93AF93BF93EF93FA
:10069000FF9381E692E00E940F01FF91EF91BF91DD
:1006A000AF919F918F917F916F915F914F913F910A
:1006B0002F910F900FBE0F901F9018951F920F92C1
:1006C0000FB60F9211242F938F939F93EF93FF9365
:1006D000E0917102F09172028081E0917702F091D5
:1006E000780282FD12C0908180917A028F5F8F73B1
:1006F00020917B02821751F0E0917A02F0E0EF59ED
:10070000FD4F958F80937A0201C08081FF91EF9118
:100710009F918F912F910F900FBE0F901F90189562
:1007200081E080933D028AE680935F0210923E0250
:10073000109260028EEF92E00E94930280E00E948D
:10074000F50580913C028111FCCF81E080933C0251
:1007500080933B029FEF90933A02109239021092DD
:1007600038028093170280911702846D80931702DC
:1007700080911602813061F4109216028091170266
:100780008093BB008091BC0083FDF8CF85EC01C055
:1007900085EE8093BC0080913C028130E1F3809132
:1007A0003902811103C09091390201C091E0E8E162
:1007B000F2E0A1EEB1E080E0891721F021912D93C4
:1007C0008F5FFACF1092060280930502811101C05B
:1007D000FFCF8EEF92E00E94520208950F931F9375
:1007E000CF93DF93CDB7DEB727970FB6F894DEBF70
:1007F0000FBECDBF8C01FC0165810E949003F80102
:10080000958990958923843021F487E0E7E3F1E02E
:100810000FC0883021F487E0E0E3F1E009C08C30BC
:1008200021F487E0E9E2F1E003C087E0E2E2F1E0F1
:10083000DE01119601900D928A95E1F729813A81A6
:100840004B815C816D817E818F8190E027960FB610
:10085000F894DEBF0FBECDBFDF91CF911F910F91F6
:1008600008950F931F93CF93DF93CDB7DEB72797EC
:100870000FB6F894DEBF0FBECDBF8C01FC016581C1
:100880000E949003F801958990958923883021F47E
:1008900087E0EBE1F1E00FC08C3021F487E0E4E188
:1008A000F1E009C0843021F487E0EDE0F1E003C01D
:1008B00087E0E6E0F1E0DE01119601900D928A9565
:1008C000E1F729813A814B815C816D817E818F8145
:1008D00090E027960FB6F894DEBF0FBECDBFDF9134
:1008E000CF911F910F9108951F920F920FB60F9203
:1008F00011242F933F934F935F936F937F938F9325
:100900009F93AF93BF93EF93FF938091B900887F3C
:10091000803609F49CC068F5883209F45BC090F415
:10092000803109F454C038F4882309F4F6C08830C3
:1009300009F44DC0F6C0883109F44CC0803209F486
:100940005DC0EFC0803409F468C048F4803309F416
:1009500055C0883309F0E5C080933A02D8C080358D
:1009600009F44FC0883509F45DC0883409F0D9C056
:10097000D6C0883909F4C7C0A8F4883709F467C01D
:1009800038F4883609F463C0803709F460C0C9C000
:10099000883809F4B8C0803909F45FC0803809F09C
:1009A000C0C05BC0803B09F486C038F4803A09F4CB
:1009B00066C0883A09F47FC0B4C0803C09F4A7C07F
:1009C000883C09F4A4C0883B09F48AC0AAC080917D
:1009D000170210C09091390280913802981770F573
:1009E000E091390281E08E0F80933902F0E0E85EF9
:1009F000FD4F80818093BB0085EC86C080933A02D6
:100A00008EC0E091390281E08E0F8093390280918F
:100A1000BB00F0E0E85EFD4F808390913902809149
:100A200038026EC0E091390281E08E0F8093390266
:100A30008091BB00F0E0E85EFD4F808380913B0237
:100A400081116DC081E08093160284EA61C083E069
:100A500080933C021092E001CFCF8091E001803280
:100A600008F051C0E091E00181E08E0F8093E00139
:100A70008091BB00F0E0E054FE4F8083BDCF85EC59
:100A80008093BC0010923C028091E001803230F4EF
:100A9000E091E001F0E0E054FE4F10826091E0014F
:100AA00070E0E0910102F091020280EC91E0099582
:100AB0001092E00136C084E080933C021092BF01A6
:100AC0001092BE01E0910302F09104020995809119
:100AD000BE01811105C081E08093BE0110929E018C
:100AE000E091BF0181E08E0F8093BF01F0E0E256FC
:100AF000FE4F80818093BB009091BF018091BE0129
:100B0000981708F479CF85E88093BC000AC085EC7B
:100B10008093BC0010923C0204C010923A020E94E2
:100B20001002FF91EF91BF91AF919F918F917F91B3
:100B30006F915F914F913F912F910F900FBE0F904A
:100B40001F901895009769F0FC0101900020E9F7CB
:100B50003197AF01481B590BBC0181E692E00C9420
:100B60009E0080E090E008958F929F92AF92BF9296
:100B70000F931F93CF93DF93CDB7DEB7A1970FB637
:100B8000F894DEBF0FBECDBF19A2423008F44AE090
:100B90008E010F5D1F4F842E912CA12CB12CA5012D
:100BA00094010E94560EE62FB901CA0101501109A5
:100BB000EA3014F4E05D01C0E95CD801EC93232B2A
:100BC000242B252B61F7C8010E94A205A1960FB620
:100BD000F894DEBF0FBECDBFDF91CF911F910F9173
:100BE000BF90AF909F908F900895282F3091600212
:100BF000313208F04AC080913C028111FCCF9091C3
:100C00005F0242E040933C0220933B022FEF20938F
:100C10003A021092390230933802EFE3F2E0A8E191
:100C2000B2E020E0321721F041914D932F5FFACFCF
:100C30001092170220911702990F922B909317028E
:100C400090911602913061F4109216029091170261
:100C50009093BB009091BC0093FDF8CF95EC01C040
:100C600095EE9093BC0090913C029230E1F390910C
:100C70003A029F3F79F080913A02803241F08091B0
:100C80003A02803331F084E005C081E003C082E0A5
:100C900001C083E010923E021092600210923D0269
:100CA00008958F929F92AF92BF92CF92DF92EF9270
:100CB000FF920F931F93CF93DF936B017C01142F4F
:100CC0009B01AC010E94510E882319F081E991E04B
:100CD00027C046015701E894B7F82FEF3FEF4FE7E1
:100CE0005FE7C501B4010E94510E81110DC02FEFC5
:100CF0003FEF4FE75FE7C501B4010E94E30B181611
:100D00001CF485E991E00CC02FEF3FEF4FE75FE463
:100D1000C701B6010E944C0E181684F489E991E0CF
:100D2000DF91CF911F910F91FF90EF90DF90CF90C7
:100D3000BF90AF909F908F900C94A2052FEF3FEF44
:100D40004FE75FECC701B6010E94E30B87FDE6CFDA
:100D500020E030E0A901C701B6010E94E30B87FF44
:100D60000BC06DE281E692E00E943101EC01F7FADE
:100D7000F094F7F8F09402C0C0E0D0E000E060E04A
:100D800070E080E09FE3101741F020E030E040E2A7
:100D900051E40E94AB0D0F5FF6CFA70196010E94B0
:100DA0003F0D6B017C010E941D0E4B015C014AE06E
:100DB0000E94B405C80FD91F1123B9F1C501B401B0
:100DC0000E94E80B9B01AC01C701B6010E943E0DD9
:100DD0006B017C016EE281E692E00E943101C80F56
:100DE000D91F20E030E040E251E4C701B6010E9483
:100DF000490C4B015C010E941D0E6B01E12CF12C92
:100E00004AE0C701B6010E94B405C80FD91FC70147
:100E1000B6010E94E80B9B01AC01C501B4010E9420
:100E20003E0D6B017C011150E1F6CE01DF91CF91B7
:100E30001F910F91FF90EF90DF90CF90BF90AF90F8
:100E40009F908F90089590E0FC01E656FF4F24910B
:100E5000FC01EA57FF4F3491FC01EE58FF4FE4913B
:100E6000EE23B1F1222339F1233091F038F421300F
:100E7000A9F0223001F584B58F7D12C0273091F0A2
:100E80002830A1F02430B9F4809180008F7D03C018
:100E9000809180008F77809380000DC084B58F771C
:100EA00084BD09C08091B0008F7703C08091B000ED
:100EB0008F7D8093B000F0E0EE0FFF1FE859FF4FE9
:100EC000A591B4918FB7F894EC91E32BEC938FBF7D
:100ED00008952FB7F8948091120290911302A09177
:100EE0001402B09115022FBF8093690290936A0299
:100EF000A0936B02B0936C0281E692E00E94D7004F
:100F000097FF26C02FB7F894809112029091130298
:100F1000A0911402B09115022FBF40916902509127
:100F20006A0260916B0270916C02841B950BA60B98
:100F3000B70B409165025091660260916702709113
:100F4000680284179507A607B707B0F28FEF9FEFE7
:100F500008953FB7F89480910E0290910F02A091EE
:100F60001002B091110226B5A89B05C02F3F19F0C1
:100F70000196A11DB11D3FBFBA2FA92F982F882719
:100F8000820F911DA11DB11DBC01CD0142E0660F74
:100F9000771F881F991F4A95D1F708958F929F92C6
:100FA000AF92BF92CF92DF92EF92FF926B017C01E2
:100FB0000E94A9074B015C01C114D104E104F104B2
:100FC000F1F00E94A907DC01CB0188199909AA094F
:100FD000BB09883E9340A105B10570F321E0C21A18
:100FE000D108E108F10888EE880E83E0981EA11C64
:100FF000B11CC114D104E104F10419F7DDCFFF9055
:10100000EF90DF90CF90BF90AF909F908F9008951A
:10101000EF92FF920F931F93CF93DF93F82EE62E5C
:101020008A01CAE0D0E06EE180E193E00E94900383
:1010300090911403892391F06F2D80E193E00E9439
:101040009003C82FD0E06E2D80E193E00E949003C2
:10105000D82BF801D183C08381E009C061E070E042
:1010600080E090E00E94CE072197E9F680E0DF91D2
:10107000CF911F910F91FF90EF900895CF93DF9341
:10108000CDB7DEB728970FB6F894DEBF0FBECDBF41
:10109000789484B5826084BD84B5816084BD85B553
:1010A000826085BD85B5816085BD80916E0081605F
:1010B00080936E0010928100809181008260809305
:1010C0008100809181008160809381008091800007
:1010D0008160809380008091B10084608093B10032
:1010E0008091B00081608093B00080917A0084602C
:1010F00080937A0080917A00826080937A00809158
:101100007A00816080937A0080917A008068809371
:101110007A001092C100E0917102F091720282E0B7
:101120008083E0916D02F0916E021082E0916F0277
:10113000F09170028FEC808310927902E091750239
:10114000F091760286E08083E0917302F091740260
:10115000808180618083E0917302F09174028081CC
:1011600088608083E0917302F091740280818068CE
:101170008083E0917302F091740280818F7D80837F
:10118000109206021092050210923E021092600226
:1011900010923C0281E080933B021092160282E1A1
:1011A0000E94230783E10E9423078091B9008E7F6C
:1011B0008093B9008091B9008D7F8093B90088E455
:1011C0008093B80085E48093BC008BE990E0909315
:1011D0000402809303028CE990E0909302028093D2
:1011E000010280E193E00E94EE0320931603309306
:1011F0001703409318035093190360931A037093D5
:101200001B0380931C036091150380E193E00E940F
:101210009003909123039095892391E009F490E045
:1012200090931203EE24E394F12C81E692E00E9465
:10123000F900181619060CF081C01A8219821C8256
:101240001B821E821D8260E070E0CE0101960E942A
:10125000110329813A8181110DC02115310519F041
:10126000C9010E94160F1A8219821E821D821C82D9
:101270001B8207C01E821D8260E971E0C9010E94C5
:1012800073100E94690797FD1BC08F8318860D811C
:101290001E810F5F1F4FB801CE0101960E941103FE
:1012A000882379F329813A818D819E81BE01695F0E
:1012B0007F4F820F931F0E9473101E830D83E1CF17
:1012C00080910A0390910B03009741F069817A8124
:1012D0006115710509F0F5C00E94160F89819A8188
:1012E00090930B0380930A038B819C8190930D0351
:1012F00080930C038D819E8190930F0380930E0346
:101300001A82198289819A810E94160F80910A039C
:1013100090910B03009719F00E94A70B03C060E0A7
:1013200070E0CB016093090270930A0280930B0274
:1013300090930C02F0920802E0920702809107025B
:1013400090910802019709F0B9C008EE13E00E94DD
:10135000A9074AE00E94B4058CE891E00E94A2052A
:101360001A82198280911203882349F0AE014F5FDF
:101370005F4F60911E0380911D030E9408086981E0
:101380007A81072E000C880B990B0E94EA0B2091A2
:101390001703309118034091190350911A030E94CA
:1013A000490C20E030E04AE754E40E94AB0D44E0F1
:1013B0000E945106BC0180E090E04AE00E94B40522
:1013C0008CE891E00E94A2051A8219828091120392
:1013D000882349F0AE014F5F5F4F609120038091F9
:1013E0001F030E94080869817A81072E000C880B70
:1013F000990B0E94EA0B209117033091180340913A
:10140000190350911A030E94490C20E030E04AE78A
:1014100054E40E94AB0D44E00E945106BC0180E000
:1014200090E04AE00E94B4058CE891E00E94A20599
:101430001A82198280911203882349F0AE014F5F0E
:101440005F4F60912203809121030E940808698107
:101450007A81072E000C880B990B0E94EA0B2091D1
:101460001703309118034091190350911A030E94F9
:10147000490C20E030E04AE754E40E94AB0D44E020
:101480000E945106BC0180E090E04AE00E94B40551
:101490008EE891E00E94A2056091090270910A0213
:1014A00080910B0290910C020E94CE07015011090D
:1014B00009F04DCF10920802109207020E94A0017D
:1014C000B4CE40910C0350910D032D813E81421703
:1014D000530708F401CF0E9473108D819E81909371
:1014E0000F0380930E030ECF80910A0390910B039C
:1014F0000E94160F84E791E09093280380932703BE
:1015000080912903882321F087E293E00E94970AC3
:1015100084E791E09093110380931003809112036C
:10152000882321F080E193E00C94970A0895FF92BC
:101530000F931F93CF93DF93FC010281002319F1D6
:10154000EC0165810E949003F82E1B896D8181E07A
:1015500080933D028AE680935F0210923E021092D1
:1015600060028EEF92E00E949302892B59F06F2D5A
:1015700061238EEF92E00E949302892B19F081E0A3
:101580000E94F5051A82802FDF91CF911F910F9154
:10159000FF900895109264021092630288EE93E027
:1015A000A0E0B0E08093650290936602A09367028A
:1015B000B093680222E431E030936202209361022A
:1015C00025EC30E030936E0220936D0224EC30E085
:1015D0003093700220936F0220EC30E0309372025F
:1015E0002093710221EC30E0309374022093730257
:1015F00022EC30E0309376022093750226EC30E046
:10160000309378022093770210927A0210927B0234
:1016100010927C0210927D0222E831E03093110397
:101620002093100322E02093140321E1209315035B
:1016300026E1209313032FE7209324033FE0309308
:10164000230323EF2093250342E240931D0343E24B
:1016500040931E0344E240931F0345E2409320035E
:1016600046E24093210347E24093220346E651E0DD
:10167000509328034093270341E040932B0340E11C
:1016800040932C0345E140932A034FEE40933B03E4
:1016900030933A0320933C032CEF20933D0328E240
:1016A0002093340329E2209335032AE22093360362
:1016B0002BE2209337032CE2209338032DE2209372
:1016C0003903109201031092000380930203909358
:1016D0000303A0930403B093050384E591E0909382
:1016E000FF028093FE0210920B0310920A031092E5
:1016F0000D0310920C0310920F0310920E0360E082
:1017000070E08AE093E00E94110320910A03309177
:101710000B03811113C02115310519F0C9010E9475
:10172000160F10920B0310920A0310920F031092DF
:101730000E0310920D0310920C03089510920F03E4
:1017400010920E0360E971E0C9010C9473101F93AD
:10175000FC0199278827BC01E89411911032E9F324
:10176000193010F01E30C8F31B3251F01D3249F40D
:10177000689406C00E94CE0B610F711D811D911DE2
:10178000119110531A30B0F33EF4909580957095F6
:1017900061957F4F8F4F9F4F1F910895592F482F6D
:1017A000372F262F660F771F881F991F660F771F09
:1017B000881F991F620F731F841F951F660F771F65
:1017C000881F991F08950E94250C08F481E0089550
:1017D000E89409C097FB3EF49095809570956195CB
:1017E0007F4F8F4F9F4F9923A9F0F92F96E9BB2781
:1017F0009395F695879577956795B795F111F8CFFD
:10180000FAF4BB0F11F460FF1BC06F5F7F4F8F4F67
:101810009F4F16C0882311F096E911C0772321F05D
:101820009EE8872F762F05C0662371F096E8862FF5
:1018300070E060E02AF09A95660F771F881FDAF74C
:10184000880F9695879597F90895990F0008550F79
:10185000AA0BE0E8FEEF16161706E807F907C0F036
:1018600012161306E407F50798F0621B730B840B3E
:10187000950B39F40A2661F0232B242B252B21F418
:1018800008950A2609F4A140A6958FEF811D811DB8
:1018900008950E945C0C0C94CD0C0E94BF0C38F093
:1018A0000E94C60C20F0952311F00C94B60C0C94F9
:1018B000BC0C11240C94010D0E94DE0C70F3959F5A
:1018C000C1F3950F50E0551F629FF001729FBB2737
:1018D000F00DB11D639FAA27F00DB11DAA1F649FD3
:1018E0006627B00DA11D661F829F2227B00DA11D86
:1018F000621F739FB00DA11D621F839FA00D611D0C
:10190000221F749F3327A00D611D231F849F600D2C
:10191000211D822F762F6A2F11249F5750409AF055
:10192000F1F088234AF0EE0FFF1FBB1F661F771FE1
:10193000881F91505040A9F79E3F510580F00C94AC
:10194000B60C0C94010D5F3FE4F3983ED4F38695FA
:1019500077956795B795F795E7959F5FC1F7FE2B4C
:10196000880F911D9695879597F9089597F99F6728
:1019700080E870E060E008959FEF80EC0895002417
:101980000A941616170618060906089500240A94E4
:1019900012161306140605060895092E0394000C6A
:1019A00011F4882352F0BB0F40F4BF2B11F460FFF9
:1019B00004C06F5F7F4F8F4F9F4F089557FD905822
:1019C000440F551F59F05F3F71F04795880F97FB03
:1019D000991F61F09F3F79F08795089512161306BD
:1019E0001406551FF2CF4695F1DF08C016161706EC
:1019F0001806991FF1CF8695710561050894089521
:101A0000E894BB2766277727CB0197F908952F9293
:101A10003F924F925F926F927F928F929F92AF927E
:101A2000BF92CF92DF92EF92FF920F931F93CF93CB
:101A3000DF93CDB7DEB7CA1BDB0B0FB6F894DEBF62
:101A40000FBECDBF09942A88398848885F846E8488
:101A50007D848C849B84AA84B984C884DF80EE80D2
:101A6000FD800C811B81AA81B981CE0FD11D0FB6DB
:101A7000F894DEBF0FBECDBFED0108955058BB27CF
:101A8000AA270E94560D0C94CD0C0E94BF0C38F072
:101A90000E94C60C20F039F49F3F19F426F40C94F0
:101AA000BC0C0EF4E095E7FB0C94B60CE92F0E94F9
:101AB000DE0C58F3BA17620773078407950720F006
:101AC00079F4A6F50C94000D0EF4E0950B2EBA2FC8
:101AD000A02D0B01B90190010C01CA01A001112434
:101AE000FF27591B99F0593F50F4503E68F11A16E0
:101AF000F040A22F232F342F4427585FF3CF469571
:101B000037952795A795F0405395C9F77EF41F1692
:101B1000BA0B620B730B840BBAF09150A1F0FF0F5C
:101B2000BB1F661F771F881FC2F70EC0BA0F621F48
:101B3000731F841F48F4879577956795B795F79538
:101B40009E3F08F0B0CF9395880F08F09927EE0FCD
:101B50009795879508950E94BF0D0C94CD0C0E9417
:101B6000C60C58F00E94BF0C40F029F45F3F29F0EA
:101B70000C94B60C51110C94010D0C94BC0C0E94E9
:101B8000DE0C68F39923B1F3552391F3951B550BA4
:101B9000BB27AA2762177307840738F09F5F5F4F40
:101BA000220F331F441FAA1FA9F335D00E2E3AF07F
:101BB000E0E832D091505040E695001CCAF72BD097
:101BC000FE2F29D0660F771F881FBB1F26173707E8
:101BD0004807AB07B0E809F0BB0B802DBF01FF271A
:101BE00093585F4F3AF09E3F510578F00C94B60C35
:101BF0000C94010D5F3FE4F3983ED4F386957795FE
:101C00006795B795F7959F5FC9F7880F911D9695D2
:101C1000879597F90895E1E0660F771F881FBB1F2E
:101C2000621773078407BA0720F0621B730B840BDB
:101C3000BA0BEE1F88F7E09508950E94E60C88F035
:101C40009F5798F0B92F9927B751B0F0E1F0660F80
:101C5000771F881F991F1AF0BA95C9F714C0B130C1
:101C600091F00E94000DB1E008950C94000D672FD3
:101C7000782F8827B85F39F0B93FCCF386957795F0
:101C80006795B395D9F73EF49095809570956195D9
:101C90007F4F8F4F9F4F08950E94250C08F48FEFC0
:101CA00008950E94250C880B990B0895A1E21A2E25
:101CB000AA1BBB1BFD010DC0AA1FBB1FEE1FFF1FF0
:101CC000A217B307E407F50720F0A21BB30BE40B40
:101CD000F50B661F771F881F991F1A9469F7609587
:101CE0007095809590959B01AC01BD01CF01089541
:101CF000EE0FFF1F0590F491E02D09940F931F93B1
:101D0000CF93DF938230910510F482E090E0E09170
:101D10004003F091410320E030E0A0E0B0E03097D4
:101D200019F1408151810281138148175907C8F088
:101D30008417950769F4109731F012960C93129757
:101D400013961C9327C0009340031093410322C0B5
:101D50002115310519F04217530718F49A01BD01F6
:101D6000EF01DF01F801DBCF21153105F9F0281B68
:101D7000390B2430310580F48A819B81611571050E
:101D800021F0FB019383828304C0909341038093ED
:101D90004003FE01329644C0FE01E20FF31F81931F
:101DA000919322503109398328833AC020913E0310
:101DB00030913F03232B41F4209102013091030124
:101DC00030933F0320933E032091000130910101A5
:101DD0002115310541F42DB73EB7409104015091D2
:101DE0000501241B350BE0913E03F0913F03E21700
:101DF000F307A0F42E1B3F0B2817390778F0AC012E
:101E00004E5F5F4F2417350748F04E0F5F1F50930A
:101E10003F0340933E038193919302C0E0E0F0E0E2
:101E2000CF01DF91CF911F910F910895CF93DF9351
:101E3000009709F481C0FC01329713821282A091AD
:101E40004003B0914103109781F420813181820FCA
:101E5000931F20913E0330913F032817390751F516
:101E6000F0933F03E0933E0367C0ED0120E030E0D4
:101E7000CE17DF0740F44A815B819E014115510571
:101E8000F1F0EA01F5CFD383C28340815181840F01
:101E9000951FC817D90759F488819981840F951F18
:101EA0000296918380838A819B819383828321150B
:101EB000310529F4F0934103E09340033DC0E9016B
:101EC000FB83EA8349915991C40FD51FEC17FD0795
:101ED00061F480819181840F951F0296E9019983B5
:101EE0008883828193819B838A83E0E0F0E012966D
:101EF0008D919C911397009719F0FD01DC01F7CFAC
:101F00008D919C9111979D012E5F3F4F820F931FE2
:101F100020913E0330913F032817390769F4309729
:101F200029F4109241031092400302C013821282DE
:101F3000B0933F03A0933E03DF91CF910895A0E0BB
:101F4000B0E0E5EAFFE00C940B0DEC01009721F402
:101F5000CB010E947E0EB4C0FC01E60FF71F9C016E
:101F600022503109E217F30708F4A8C0D9010D91F6
:101F70001C91119706171707B0F00530110508F4EA
:101F80009BC0C80104978617970708F495C00250B4
:101F90001109061B170B019311936D937C93CF01CD
:101FA0000E94160F89C05B01A01AB10A4C01800E75
:101FB000911EA0914003B0914103612C712CE12C42
:101FC000F12C109709F446C08D919C911197A8159A
:101FD000B905B1F56C0142E0C40ED11CCA14DB0492
:101FE00078F14C018A189B08640142E0C40ED11CB0
:101FF0001296BC9012971396AC91B5E0CB16D10413
:1020000040F0B282A38391828082D9016D937C9348
:1020100009C00E5F1F4F800F911FF90191838083CC
:10202000EB2DFA2FE114F10431F0D7011396FC9354
:10203000EE93129741C0F0934103E09340033CC0FC
:102040006816790608F43C017D0112960D90BC914A
:10205000A02DB7CF80913E0390913F03881699063B
:10206000E1F466167706C8F48091000190910101B1
:10207000009741F48DB79EB740910401509105013E
:10208000841B950BE817F907C8F4F0933F03E0931E
:102090003E03F901718360830FC0CB010E947E0E65
:1020A0007C01009759F0A801BE010E946A10CE0180
:1020B0000E94160FC70104C0CE0102C080E090E06C
:1020C000CDB7DEB7EEE00C94270D81E090E0F894F8
:1020D0000C947A10FB01DC0102C001900D9241507A
:1020E0005040D8F70895FB01DC0101900D920020CB
:1020F000E1F7089510E0C8E5D0E004C0FE010E94B9
:0E210000780E2196C935D107C9F7F894FFCFA4
:10210E000000420380000023DB793D02000423DB44
:10211E00F93E10000C23DB793E08000823DBF93D65
:10212E0004000000000C41F5000C00008C42D007AA
:10213E000800000C42E8030400008C41F40100008A
:10214E00000031019E00C8007E01F900D700EB00AF
:10215E000000000093026602C2024202DC0152023B
:10216E00430200000000EC01EE01E40183003104A3
:10217E0000000000C502C502C502C502C50200006E
:10218E000000B201BA01AA018300EE032C000D0A71
:0E219E00006E616E00696E66006F766600006E
:00000001FF
