:100000000C9463000C948B000C948B000C948E0366
:100010000C948E030C948E030C948B000C948B0028
:100020000C948B000C948B000C948B000C948B0024
:100030000C948B000C948B000C948B000C948B0014
:100040000C9444030C948B000C9412030C94EC025B
:100050000C948B000C948B000C948B000C948B00F4
:100060000C948B000C948B0008000000BE92244975
:10007000123EABAAAA2ABECDCCCC4C3E00000080DA
:10008000BEABAAAAAA3E00000000BF000000803F4D
:100090000000000000084178D3BB4387D1133D190D
:1000A0000E3CC3BD4282AD2B3E68EC8276BED98F3A
:1000B000E1A93E4C80EFFFBE01C4FF7F3F0000007E
:1000C00000009803890611241FBECFEFD8E0DEBFE1
:1000D000CDBF11E0A0E0B1E0E8E0F8E102C005909A
:1000E0000D92A433B107D9F722E0A4E3B1E001C037
:1000F0001D92A432B207E1F710E0C2E6D0E004C0DE
:100100002197FE010E948F06C136D107C9F70E94D0
:100110001D040C94F70B0C9400002FB7F8948091F9
:10012000410190914201A0914301B09144012FBF40
:100130008093530190935401A0935501B0935601BD
:10014000E0914B01F0914C010680F781E02D8BE4AA
:1001500091E0099597FF26C02FB7F894809141014F
:1001600090914201A0914301B09144012FBF409171
:100170005301509154016091550170915601841BB7
:10018000950BA60BB70B40914F0150915001609118
:1001900051017091520184179507A607B70780F2A5
:1001A0008FEF9FEF08950895CF92DF92EF92FF9225
:1001B0000F931F93CF93DF936C017A018B01C0E003
:1001C000D0E0CE15DF0589F0D8016D918D01D60103
:1001D000ED91FC910190F081E02DC6010995892BEC
:1001E00011F47E0102C02196ECCFC701DF91CF91BF
:1001F0001F910F91FF90EF90DF90CF900895FC0139
:10020000918D828D981761F0828DDF01A80FB11D4D
:100210005D968C91928D9F5F9F73928F90E0089571
:100220008FEF9FEF0895FC01918D828D981731F02B
:10023000828DE80FF11D858D90E008958FEF9FEF7F
:100240000895FC01918D228D892F90E0805C9F4F55
:10025000821B91098F73992708958BE491E00E9486
:10026000210121E0892B09F420E0822F0895FC016F
:10027000848DDF01A80FB11DA35ABF4F2C91848D2F
:1002800090E001968F739927848FA689B7892C9364
:10029000A089B1898C9180648C93938D848D9813FF
:1002A00006C00288F389E02D80818F7D80830895C8
:1002B000EF92FF920F931F93CF93DF93EC0181E0B6
:1002C000888F9B8D8C8D981305C0E889F989808172
:1002D00085FD24C0F62E0B8D10E00F5F1F4F0F73AE
:1002E0001127E02E8C8DE8120CC00FB607FCFACF58
:1002F000E889F989808185FFF5CFCE010E94370119
:10030000F1CF8B8DFE01E80FF11DE35AFF4FF08214
:100310000B8FEA89FB898081806207C0EE89FF89A3
:100320006083E889F98980818064808381E090E03E
:10033000DF91CF911F910F91FF90EF900895CF9390
:10034000DF93EC01888D8823C9F0EA89FB898081DD
:1003500085FD05C0A889B9898C9186FD0FC00FB6AF
:1003600007FCF5CF808185FFF2CFA889B9898C91F0
:1003700085FFEDCFCE010E943701E7CFDF91CF910E
:10038000089580E090E0892B29F00E942D018111D1
:100390000C94000008953FB7F89480913701909134
:1003A0003801A0913901B0913A0126B5A89B05C04A
:1003B0002F3F19F00196A11DB11D3FBFBA2FA92FE4
:1003C000982F8827820F911DA11DB11DBC01CD0161
:1003D00042E0660F771F881F991F4A95D1F708954D
:1003E0006115710579F0FB0101900020E9F7319763
:1003F000AF01461B570BDC01ED91FC910280F381AC
:10040000E02D099480E090E008954F925F926F9202
:100410007F92EF92FF920F931F93CF93DF93CDB70D
:10042000DEB7A1970FB6F894DEBF0FBECDBF7C013B
:10043000FA01CB0119A2223008F42AE08E010F5DE7
:100440001F4F422E512C612C712CBF01A301920130
:100450000E94D50BF901CA01015011096A3014F448
:10046000605D01C0695CD8016C93232B242B252B84
:1004700061F7B801C7010E94F001A1960FB6F89488
:10048000DEBF0FBECDBFDF91CF911F910F91FF90C7
:10049000EF907F906F905F904F9008958F929F9212
:1004A000AF92BF92CF92DF92EF92FF920F931F9382
:1004B000CF93DF937C01EB016C0182E0C80ED11C6D
:1004C0004701E5E08E0E911C00E010E0F60141913D
:1004D0006F0150E060E070E02AE0CE010E9405026A
:1004E0005C01E881F9810190F081E02D6EE2CE019E
:1004F00009958A0D9B1D080F191FC814D90431F7DF
:10050000F701458150E060E070E02AE0CE010E94F2
:100510000502800F911FDF91CF911F910F91FF90E6
:10052000EF90DF90CF90BF90AF909F908F90089505
:100530000E94290A0F931F93CF93DF93EC018881C8
:100540009981009729F02A813B812617370788F483
:100550008B016F5F7F4F0E945F09009761F0998365
:1005600088831B830A832C813D81232B11F4FC019A
:10057000108281E001C080E0DF91CF911F910F9147
:100580000895EF92FF920F931F93CF93DF93EC01A7
:100590007B018A01BA010E949A0228813981811166
:1005A0000DC02115310519F0C9010E94C708198233
:1005B00018821D821C821B821A8206C01D830C8336
:1005C000B701C9010E94370ACE01DF91CF911F9177
:1005D0000F91FF90EF9008951F920F920FB60F9218
:1005E00011242F933F934F935F936F937F938F9338
:1005F0009F93AF93BF93EF93FF938BE491E00E949F
:100600003701FF91EF91BF91AF919F918F917F91B2
:100610006F915F914F913F912F910F900FBE0F906F
:100620001F9018951F920F920FB60F9211242F93BF
:100630008F939F93EF93FF93E0915B01F0915C01A7
:100640008081E0916101F091620182FD12C0908190
:10065000809164018F5F8F7320916501821751F043
:10066000E0916401F0E0E55BFE4F958F80936401BB
:1006700001C08081FF91EF919F918F912F910F90F9
:100680000FBE0F901F9018951F920F920FB60F92EA
:1006900011242F933F938F939F93AF93BF93809198
:1006A000410190914201A0914301B09144013091E8
:1006B000360123E0230F2D3720F40196A11DB11D33
:1006C00005C026E8230F0296A11DB11D2093360117
:1006D0008093410190934201A0934301B093440160
:1006E0008091370190913801A0913901B0913A0180
:1006F0000196A11DB11D8093370190933801A093FD
:100700003901B0933A01BF91AF919F918F913F9181
:100710002F910F900FBE0F901F9018951F920F9260
:100720000FB60F9211240F900FBE0F901F901895C7
:10073000E5E4F1E08EE191E09183808312821382FF
:1007400014821582EBE4F1E01382128248EE53E04A
:1007500060E070E044835583668377832EE031E068
:100760003183208325EC30E03587248724EC30E08A
:100770003787268720EC30E0318B208B21EC30E06E
:10078000338B228B22EC30E0358B248B26EC30E04F
:10079000378B268B118E128E138E148EE8EEF1E0BD
:1007A000918380831282138214821582EEEEF1E02F
:1007B000918380831282138214821582E4EFF1E028
:1007C000918380831282138214821582E2E0F2E028
:1007D000918380831282138214821582EAEFF1E002
:1007E000918380831282138214821582E8E0F2E002
:1007F000918380831282138214821582EEE0F2E0EC
:10080000918380831282138214821582E4E1F2E0E4
:10081000918380831282138214821582EAE1F2E0CE
:1008200011821082138212821582148240E050E0FD
:1008300062E371E0CF010C94C102CF93DF93CDB797
:10084000DEB728970FB6F894DEBF0FBECDBF789401
:1008500084B5826084BD84B5816084BD85B58260C5
:1008600085BD85B5816085BD80916E008160809376
:100870006E001092810080918100826080938100DF
:1008800080918100816080938100809180008160EF
:10089000809380008091B10084608093B10080914A
:1008A000B00081608093B00080917A008460809372
:1008B0007A0080917A00826080937A0080917A0039
:1008C000816080937A0080917A00806880937A00BA
:1008D0001092C100E0915B01F0915C0182E08083A5
:1008E000E0915701F09158011082E0915901F09187
:1008F0005A018FEC808310926301E0915F01F091C7
:10090000600186E08083E0915D01F0915E0180816D
:1009100080618083E0915D01F0915E01808188605B
:100920008083E0915D01F0915E0180818068808329
:10093000E0915D01F0915E0180818F7D80832224B2
:100940002A9483E0382E8BE491E00E94210118164E
:1009500019060CF07AC01A8219821C821B821E8230
:100960001D8240E050E062E371E0CE0101960E94FA
:10097000C1020E948D0097FD1BC08F8318860D81D8
:100980001E810F5F1F4FB801CE0101960E949A028F
:10099000882379F329813A818D819E81BE01695F27
:1009A0007F4F820F931F0E94370A1E830D83E1CF72
:1009B00080911A0290911B02009789F069817A81D7
:1009C0006115710551F040911C0250911D022D815D
:1009D0003E814217530708F093C10E94C7088981DE
:1009E0009A8190931B0280931A028B819C81909331
:1009F0001D0280931C028D819E8190931F02809323
:100A00001E021A8219821C821B821E821D8289810B
:100A10009A810E94C70880911A0290911B02009748
:100A200019F00E943E0A03C060E070E0CB016093C1
:100A30003D0170933E0180933F019093400181E01E
:100A400090E090933C0180933B0180913B01909119
:100A50003C01019709F051C108EE13E00E94CB015F
:100A6000AB01BC012AE08BE491E00E94050260E248
:100A700071E08BE491E00E94F00190E490937C009F
:100A800080917A00806480937A0080917A0086FD5C
:100A9000FCCFE090780080917900F12CF82AB10128
:100AA0006E197F09072E000C880B990B0E94810A92
:100AB00020E030E44CE156E40E94E00A4B015C0186
:100AC000B701FF0C880B990B0E94810A9B01AC01B6
:100AD000C501B4010E94020720E030E44CE156E475
:100AE0000E9402070E94B00720E030E748E755E483
:100AF0000E9402072FE03FEC4BE55BE30E94960665
:100B00009B01AC0160E070E080E89FE30E94020777
:100B100023E333E948E853E40E9495066B017C0126
:100B20004B015C019B01AC010E94F807882319F07E
:100B300062E271E01AC026013701E89477F82FEFDE
:100B40003FEF4FE75FE7C301B2010E94F807811151
:100B500011C02FEF3FEF4FE75FE7C301B2010E94E3
:100B60007A0A18163CF466E271E08BE491E00E9488
:100B7000F00186C02FEF3FEF4FE75FE4C701B601FA
:100B80000E94A30718161CF46AE271E0EECF2FEF63
:100B90003FEF4FE75FECC701B6010E947A0A87FD7D
:100BA000F3CF20E030E0A901C701B6010E947A0A24
:100BB00087FF11C0E0914B01F0914C010190F08151
:100BC000E02D6DE28BE491E0099546015701B7FAFB
:100BD000B094B7F8B0942AE037ED43EA5BE3C5017F
:100BE000B4010E9496064B015C010E9474076B01E0
:100BF0007C010E947F0A9B01AC01C501B4010E94E7
:100C000095064B015C012AE0B701A6018BE491E057
:100C10000E9405026EE271E08BE491E00E94F00117
:100C200020E030E040E251E4C501B4010E94E00A56
:100C30004B015C010E9474076B01E12CF12C2AE04E
:100C4000B701A6018BE491E00E940502C701B6013D
:100C50000E947F0A9B01AC01C501B4010E94950668
:100C600020E030E040E251E40E94E00A0E94740774
:100C7000AB0160E070E02AE08BE491E00E940502A5
:100C800060E371E08BE491E00E94F001C0903D01CF
:100C9000D0903E01E0903F01F09040010E94CB01D6
:100CA0004B015C01C114D104E104F104F1F00E9494
:100CB000CB01DC01CB0188199909AA09BB09883E3F
:100CC0009340A105B10570F321E0C21AD108E108F3
:100CD000F10888EE880E83E0981EA11CB11CC11497
:100CE000D104E104F10419F7DDCF0150110909F035
:100CF000B5CE10923C0110923B010E94C10123CE5F
:100D00000E94370A8D819E8190931F0280931E025C
:100D10007CCE80911A0290911B020C94C708EE0FB2
:100D2000FF1F0590F491E02D09945058BB27AA2786
:100D30000E94AD060C94640B0E94560B38F00E9482
:100D40005D0B20F039F49F3F19F426F40C94530BFB
:100D50000EF4E095E7FB0C944D0BE92F0E94750B08
:100D600058F3BA17620773078407950720F079F4E0
:100D7000A6F50C94970B0EF4E0950B2EBA2FA02D30
:100D80000B01B90190010C01CA01A0011124FF2738
:100D9000591B99F0593F50F4503E68F11A16F04033
:100DA000A22F232F342F4427585FF3CF4695379532
:100DB0002795A795F0405395C9F77EF41F16BA0BF7
:100DC000620B730B840BBAF09150A1F0FF0FBB1FA5
:100DD000661F771F881FC2F70EC0BA0F621F731FEE
:100DE000841F48F4879577956795B795F7959E3F4B
:100DF00008F0B0CF9395880F08F09927EE0F9795DC
:100E0000879508950E9416070C94640B0E945D0B51
:100E100058F00E94560B40F029F45F3F29F00C94E3
:100E20004D0B51110C94980B0C94530B0E94750BA5
:100E300068F39923B1F3552391F3951B550BBB2709
:100E4000AA2762177307840738F09F5F5F4F220F4E
:100E5000331F441FAA1FA9F335D00E2E3AF0E0E845
:100E600032D091505040E695001CCAF72BD0FE2F8F
:100E700029D0660F771F881FBB1F26173707480723
:100E8000AB07B0E809F0BB0B802DBF01FF279358DB
:100E90005F4F3AF09E3F510578F00C944D0B0C9447
:100EA000980B5F3FE4F3983ED4F38695779567956A
:100EB000B795F7959F5FC9F7880F911D9695879510
:100EC00097F90895E1E0660F771F881FBB1F62172F
:100ED00073078407BA0720F0621B730B840BBA0BED
:100EE000EE1F88F7E09508950E947D0B88F09F57CC
:100EF00098F0B92F9927B751B0F0E1F0660F771F3E
:100F0000881F991F1AF0BA95C9F714C0B13091F033
:100F10000E94970BB1E008950C94970B672F782FE0
:100F20008827B85F39F0B93FCCF3869577956795F8
:100F3000B395D9F73EF490958095709561957F4F64
:100F40008F4F9F4F08950E94BC0A08F48FEF0895B9
:100F500016F00C94FD070C94530B68940C944D0BF5
:100F60000E947D0BA8F39923C1F3AEF3DF93CF93D7
:100F70001F930F93FF92C92FDD2788232AF0219713
:100F8000660F771F881FDAF720E030E040E85FEB5C
:100F90009FE3883920F0803E38F021968F770E94B9
:100FA0009606E8E6F0E004C00E949606E5E9F0E067
:100FB0000E940B088B01BE01EC01FB2E6F577109DB
:100FC0007595771F880B990B0E94810A28E132E7FB
:100FD00041E35FE30E94F30AAF2D9801AE01FF9059
:100FE0000F911F91CF91DF910E94AD060C94640B7D
:100FF0000E94BC0A880B990B08959F3F31F09150D5
:1010000020F4879577956795B795880F911D9695EC
:10101000879597F90895DF93CF931F930F93FF92CE
:10102000EF92DF927B018C01689406C0DA2EEF010B
:101030000E94F30AFE01E894A5912591359145910E
:101040005591A6F3EF010E94AD06FE019701A8019C
:10105000DA9469F7DF90EF90FF900F911F91CF9195
:10106000DF910895CF93DF938230910510F482E0F1
:1010700090E0E0912202F091230220E030E0C0E015
:10108000D0E0309711F14081518148175907C0F0E5
:101090004817590761F482819381209719F09B8347
:1010A0008A832BC0909323028093220226C02115AD
:1010B000310519F04217530718F49A01BE01DF01F8
:1010C000EF010280F381E02DDCCF2115310509F11C
:1010D000281B390B2430310590F412968D919C9188
:1010E00013976115710521F0FB019383828304C07E
:1010F0009093230280932202FD01329644C0FD01A9
:10110000E20FF31F81939193225031092D933C9369
:101110003AC02091200230912102232B41F42091EA
:10112000020130910301309321022093200220918B
:101130000001309101012115310541F42DB73EB771
:101140004091040150910501241B350BE0912002D0
:10115000F0912102E217F307A0F42E1B3F0B281792
:10116000390778F0AC014E5F5F4F2417350748F020
:101170004E0F5F1F50932102409320028193919361
:1011800002C0E0E0F0E0CF01DF91CF9108950F932E
:101190001F93CF93DF93009709F48CC0FC01329723
:1011A000138212820091220210912302011511056F
:1011B00081F420813181820F931F20912002309190
:1011C00021022817390779F5F0932102E0932002D4
:1011D00071C0D80140E050E0AE17BF0750F412963E
:1011E0002D913C911397AD012115310509F1D901DC
:1011F000F3CF9D01DA013383228360817181860FF1
:10120000971F8217930769F4EC0128813981260F13
:10121000371F2E5F3F4F318320838A819B819383C9
:101220008283452B29F4F0932302E093220242C0EB
:101230001396FC93EE931297ED01499159919E01FB
:10124000240F351FE217F30771F480819181840F19
:10125000951F029611969C938E938281938113968B
:101260009C938E931297E0E0F0E0D80112968D9156
:101270009C911397009719F0F8018C01F6CF8D918E
:101280009C9198012E5F3F4F820F931F2091200267
:10129000309121022817390769F4309729F4109208
:1012A00023021092220202C01382128210932102A2
:1012B00000932002DF91CF911F910F910895A0E03C
:1012C000B0E0E5E6F9E00C94A20BEC01009721F404
:1012D000CB010E943208B8C0FC01E60FF71F9C0149
:1012E00022503109E217F30708F4ACC0D9010D917F
:1012F0001C91119706171707B0F00530110508F477
:101300009FC0C80104978617970708F499C0025038
:101310001109061B170B019311936D937C93CF0159
:101320000E94C7088DC05B01A01AB10A4C01800E53
:10133000911EA0912202B091230240E050E0E12CE6
:10134000F12C109709F44AC0A815B905D1F56D9094
:101350007C901197630182E0C80ED11CCA14DB0493
:1013600080F1A3014A195B096A0182E0C80ED11C11
:101370001296BC9012971396AC91B5E0CB16D1049F
:1013800040F0B282A38351834083D9016D937C9353
:101390000AC00E5F1F4FC301800F911FF901918397
:1013A0008083EB2DFA2FE114F10431F0D70113966D
:1013B000FC93EE93129744C0F0932302E093220231
:1013C0003FC08D919C9111974817590708F4AC01C3
:1013D0007D0112960D90BC91A02DB3CF809120027B
:1013E0009091210288159905E1F446175707C8F432
:1013F0008091000190910101009741F48DB79EB753
:101400004091040150910501841B950BE817F907E1
:10141000C8F4F0932102E0932002F9017183608304
:101420000FC0CB010E9432087C01009759F0A8013F
:10143000BE010E942E0ACE010E94C708C70104C047
:10144000CE0102C080E090E0CDB7DEB7EEE00C94B4
:10145000BE0B81E090E0F8940C94F70BFB01DC01EB
:1014600002C001900D9241505040D8F70895FB0101
:10147000DC0101900D920020E1F708951F93FC011B
:1014800099278827BC01E89411911032E9F31930AB
:1014900010F01E30C8F31B3251F01D3249F468942D
:1014A00006C00E94650A610F711D811D911D119179
:1014B00010531A30B0F33EF4909580957095619575
:1014C0007F4F8F4F9F4F1F910895592F482F372FD0
:1014D000262F660F771F881F991F660F771F881F9B
:1014E000991F620F731F841F951F660F771F881F38
:1014F000991F08950E94BC0A08F481E00895E894B9
:1015000009C097FB3EF490958095709561957F4F4B
:101510008F4F9F4F9923A9F0F92F96E9BB279395F9
:10152000F695879577956795B795F111F8CFFAF409
:10153000BB0F11F460FF1BC06F5F7F4F8F4F9F4F3A
:1015400016C0882311F096E911C0772321F09EE898
:10155000872F762F05C0662371F096E8862F70E0FE
:1015600060E02AF09A95660F771F881FDAF7880FD8
:101570009695879597F90895990F0008550FAA0B2E
:10158000E0E8FEEF16161706E807F907C0F0121696
:101590001306E407F50798F0621B730B840B950B99
:1015A00039F40A2661F0232B242B252B21F40895EE
:1015B0000A2609F4A140A6958FEF811D811D08958B
:1015C0000E94F30A0C94640B0E94560B38F00E94A0
:1015D0005D0B20F0952311F00C944D0B0C94530BE4
:1015E00011240C94980B0E94750B70F3959FC1F316
:1015F000950F50E0551F629FF001729FBB27F00DC1
:10160000B11D639FAA27F00DB11DAA1F649F662715
:10161000B00DA11D661F829F2227B00DA11D621F64
:10162000739FB00DA11D621F839FA00D611D221F1E
:10163000749F3327A00D611D231F849F600D211D02
:10164000822F762F6A2F11249F5750409AF0F1F085
:1016500088234AF0EE0FFF1FBB1F661F771F881FEE
:1016600091505040A9F79E3F510580F00C944D0BCE
:101670000C94980B5F3FE4F3983ED4F386957795EE
:101680006795B795F795E7959F5FC1F7FE2B880F94
:10169000911D9695879597F9089597F99F6780E82A
:1016A00070E060E008959FEF80EC089500240A94B4
:1016B0001616170618060906089500240A9412162D
:1016C0001306140605060895092E0394000C11F460
:1016D000882352F0BB0F40F4BF2B11F460FF04C00D
:1016E0006F5F7F4F8F4F9F4F089557FD9058440F66
:1016F000551F59F05F3F71F04795880F97FB991F71
:1017000061F09F3F79F0879508951216130614062D
:10171000551FF2CF4695F1DF08C0161617061806BA
:10172000991FF1CF86957105610508940895E89495
:10173000BB2766277727CB0197F908952F923F9211
:101740004F925F926F927F928F929F92AF92BF92D1
:10175000CF92DF92EF92FF920F931F93CF93DF937D
:10176000CDB7DEB7CA1BDB0B0FB6F894DEBF0FBEDA
:10177000CDBF09942A88398848885F846E847D8427
:101780008C849B84AA84B984C884DF80EE80FD8029
:101790000C811B81AA81B981CE0FD11D0FB6F8949F
:1017A000DEBF0FBECDBFED010895A1E21A2EAA1B28
:1017B000BB1BFD010DC0AA1FBB1FEE1FFF1FA21701
:1017C000B307E407F50720F0A21BB30BE40BF50BFE
:1017D000661F771F881F991F1A9469F76095709587
:1017E000809590959B01AC01BD01CF01089510E05B
:1017F000C2E6D0E004C0FE010E948F062196C336E7
:08180000D107C9F7F894FFCFEE
:1018080000002402800001000000000000005801D0
:10181800D4002101FF0013019F01000000004E02C7
:101828002C006E616E00696E66006F7666002E0091
:041838000D0A000095
:00000001FF
